:020000040800F2
:1000000000000120F9100008DD100008DF100008D2
:10001000E1100008E3100008E510000800000000EF
:10002000000000000000000000000000E7100008D1
:10003000E910000800000000EB100008ED100008B7
:100040004911000849110008491100084911000828
:100050004911000849110008491100084911000818
:100060004911000849110008491100084911000808
:1000700049110008491100084911000849110008F8
:1000800049110008491100084911000849110008E8
:1000900049110008491100084911000849110008D8
:1000A00049110008491100084911000849110008C8
:1000B000491100080000000000000000491100087C
:1000C000491100080000000000000000491100086C
:1000D000000000004911000849110008000000005C
:1000E000491100084911000800000000000000004C
:1000F0000000000000000000000000000000000000
:10010000000000000000000000000000491100088D
:10011000000000000000000049110008491100081B
:100120004911000849110008491100084911000847
:10013000491100080000000000000000000000005D
:100140004911000849110008491100084911000827
:100150004911000849110008491100084911000817
:100160004911000849110008491100080000000069
:1001700049110008491100080000000000000000BB
:0C0180004911000849110008491100084D
:1001900081F0004102E000BF83F0004330B54FEA38
:1001A00041044FEA430594EA050F08BF90EA020FA5
:1001B0001FBF54EA000C55EA020C7FEA645C7FEA38
:1001C000655C00F0E2804FEA5454D4EB5555B8BF5B
:1001D0006D420CDD2C4480EA020281EA030382EACC
:1001E000000083EA010180EA020281EA0303362D5E
:1001F00088BF30BD11F0004F4FEA01314FF4801C31
:100200004CEA113102D0404261EB410113F0004F42
:100210004FEA03334CEA133302D0524263EB4303F9
:1002200094EA050F00F0A780A4F10104D5F1200E97
:100230000DDB02FA0EFC22FA05F2801841F10001F2
:1002400003FA0EF2801843FA05F359410EE0A5F1C6
:1002500020050EF1200E012A03FA0EFC28BF4CF0F7
:10026000020C43FA05F3C01851EBE37101F00045AD
:1002700007D54FF0000EDCF1000C7EEB00006EEBBA
:100280000101B1F5801F1BD3B1F5001F0CD3490844
:100290005FEA30004FEA3C0C04F101044FEA44529B
:1002A00012F5800F80F09A80BCF1004F08BF5FEA22
:1002B000500C50F1000041EB045141EA050130BD02
:1002C0005FEA4C0C404141EB0101013C28BFB1F514
:1002D000801FE9D291F0000F04BF01460020B1FA5F
:1002E00081F308BF2033A3F10B03B3F120020CDA32
:1002F0000C3208DD02F1140CC2F10C0201FA0CF010
:1003000021FA02F10CE002F11402D8BFC2F1200C74
:1003100001FA02F120FA0CFCDCBF41EA0C0190402A
:10032000E41AA2BF01EB0451294330BD6FEA040473
:100330001F3C1CDA0C340EDC04F11404C4F120025E
:1003400020FA04F001FA02F340EA030021FA04F370
:1003500045EA030130BDC4F10C04C4F1200220FAC7
:1003600002F001FA04F340EA0300294630BD21FA05
:1003700004F0294630BD94F0000F83F4801306BFCB
:1003800081F480110134013D4EE77FEA645C18BFBF
:100390007FEA655C29D094EA050F08BF90EA020F56
:1003A00005D054EA000C04BF1946104630BD91EA4E
:1003B000030F1EBF0021002030BD5FEA545C05D151
:1003C0004000494128BF41F0004130BD14F5800490
:1003D0003CBF01F5801130BD01F0004545F0FE4104
:1003E00041F470014FF0000030BD7FEA645C1ABF39
:1003F000194610467FEA655C1CBF0B46024650EA70
:10040000013406BF52EA033591EA030F41F400219B
:1004100030BD00BF90F0000F04BF0021704730B521
:100420004FF4806404F132044FF000054FF00001F6
:1004300050E700BF90F0000F04BF0021704730B5B7
:100440004FF4806404F1320410F0004548BF40428C
:100450004FF000013EE700BF42004FEAE2014FEAE1
:1004600031014FEA02701FBF12F07F4393F07F4FBC
:1004700081F06051704732F07F4208BF704793F0BF
:100480007F4F04BF41F40021704730B54FF46074D2
:1004900001F0004521F000411CE700BF50EA0102D5
:1004A00008BF704730B54FF000050AE050EA01027E
:1004B00008BF704730B511F0004502D5404261EBEE
:1004C00041014FF4806404F132045FEA915C3FF42F
:1004D000D8AE4FF003025FEADC0C18BF03325FEACC
:1004E000DC0C18BF033202EBDC02C2F1200300FA7D
:1004F00003FC20FA02F001FA03FE40EA0E0021FAA2
:1005000002F11444BDE600BF70B54FF0FF0C4CF48F
:10051000E06C1CEA11541DBF1CEA135594EA0C0F41
:1005200095EA0C0F00F0DEF82C4481EA030621EA7C
:100530004C5123EA4C5350EA013518BF52EA0335B7
:1005400041F4801143F4801338D0A0FB02CE4FF069
:100550000005E1FB02E506F00042E0FB03E54FF099
:100560000006E1FB03569CF0000F18BF4EF0010E91
:10057000A4F1FF04B6F5007F64F5407404D25FEA8D
:100580004E0E6D4146EB060642EAC62141EA555140
:100590004FEAC52040EA5E504FEACE2EB4F1FD0C82
:1005A00088BFBCF5E06F1ED8BEF1004F08BF5FEA00
:1005B000500E50F1000041EB045170BD06F00046B2
:1005C00046EA010140EA020081EA0301B4EB5C045F
:1005D000C2BFD4EB0C0541EA045170BD41F4801157
:1005E0004FF0000E013C00F3AB8014F1360FDEBF7C
:1005F000002001F0004170BDC4F10004203C35DA58
:100600000C341BDC04F11404C4F1200500FA05F3DA
:1006100020FA04F001FA05F240EA020001F000427B
:1006200021F0004110EBD37021FA04F642EB0601F1
:100630005EEA430E08BF20EAD37070BDC4F10C041B
:10064000C4F1200500FA04F320FA05F001FA04F2DF
:1006500040EA020001F0004110EBD37041F10001CB
:100660005EEA430E08BF20EAD37070BDC4F12005D6
:1006700000FA05F24EEA020E20FA04F301FA05F23E
:1006800043EA020321FA04F001F0004121FA04F2E6
:1006900020EA020000EBD3705EEA430E08BF20EAB6
:1006A000D37070BD94F0000F0FD101F000464000F0
:1006B00041EB010111F4801F08BF013CF7D041EA72
:1006C000060195F0000F18BF704703F00046520076
:1006D00043EB030313F4801F08BF013DF7D043EA47
:1006E0000603704794EA0C0F0CEA135518BF95EAFD
:1006F0000C0F0CD050EA410618BF52EA4306D1D184
:1007000081EA030101F000414FF0000070BD50EAA2
:10071000410606BF1046194652EA430619D094EA2C
:100720000C0F02D150EA013613D195EA0C0F05D116
:1007300052EA03361CBF104619460AD181EA03016A
:1007400001F0004141F0FE4141F470014FF0000022
:1007500070BD41F0FE4141F4780170BD70B54FF0BD
:10076000FF0C4CF4E06C1CEA11541DBF1CEA13553D
:1007700094EA0C0F95EA0C0F00F0A7F8A4EB05041F
:1007800081EA030E52EA03354FEA013100F0888016
:100790004FEA03334FF0805545EA131343EA1263DF
:1007A0004FEA022245EA111545EA10654FEA002694
:1007B0000EF000419D4208BF964244F1FD0404F54D
:1007C000407402D25B084FEA3202B61A65EB0305A9
:1007D0005B084FEA32024FF480104FF4002CB6EB66
:1007E000020E75EB030E22BFB61A754640EA0C00E6
:1007F0005B084FEA3202B6EB020E75EB030E22BF26
:10080000B61A754640EA5C005B084FEA3202B6EB66
:10081000020E75EB030E22BFB61A754640EA9C0025
:100820005B084FEA3202B6EB020E75EB030E22BFF5
:10083000B61A754640EADC0055EA060E18D04FEAB3
:10084000051545EA16754FEA06164FEAC30343EA53
:1008500052734FEAC2025FEA1C1CC0D111F4801F20
:100860000BD141EA00014FF000004FF0004CB6E719
:1008700011F4801F04BF01430020B4F1FD0C88BFB8
:10088000BCF5E06F3FF6AFAEB5EB030C04BFB6EBC3
:10089000020C5FEA500C50F1000041EB045170BDB6
:1008A0000EF0004E4EEA113114EB5C04C2BFD4EBE3
:1008B0000C0541EA045170BD41F480114FF0000E67
:1008C000013C90E645EA060E8DE60CEA135594EAE3
:1008D0000C0F08BF95EA0C0F3FF43BAF94EA0C0FE6
:1008E0000AD150EA01347FF434AF95EA0C0F7FF45B
:1008F00025AF104619462CE795EA0C0F06D152EAAF
:1009000003353FF4FDAE1046194622E750EA410692
:1009100018BF52EA43067FF4C5AE50EA41047FF4A3
:100920000DAF52EA43057FF4EBAE12E74FEA410206
:1009300012F5001215D211D56FF47873B3EB625231
:1009400012D94FEAC12343F0004343EA505311F058
:10095000004F23FA02F018BF404270474FF00000EA
:10096000704750EA013005D111F0004008BF6FF028
:10097000004070474FF00000704700BF4FF0FF3C51
:1009800006E000BF4FF0010C02E000BF4FF0010C89
:100990004DF804CD4FEA410C7FEA6C5C4FEA430C02
:1009A00018BF7FEA6C5C1BD001B050EA410C0CBF51
:1009B00052EA430C91EA030F02BF90EA020F0020B3
:1009C000704710F1000F91EA030F58BF994208BF1A
:1009D00090422CBFD8176FEAE37040F001007047D7
:1009E0004FEA410C7FEA6C5C02D150EA013C07D12E
:1009F0004FEA430C7FEA6C5CD6D152EA033CD3D079
:100A00005DF8040B704700BF8446104662468C4672
:100A10001946634600E000BF01B5FFF7B7FF0028A5
:100A200048BF10F1000F01BD4DF808EDFFF7F4FFCE
:100A30000CBF012000205DF808FB00BF4DF808ED59
:100A4000FFF7EAFF34BF012000205DF808FB00BF7C
:100A50004DF808EDFFF7E0FF94BF012000205DF89E
:100A600008FB00BF4DF808EDFFF7CEFF94BF012053
:100A700000205DF808FB00BF4DF808EDFFF7C4FF4C
:100A800034BF012000205DF808FB00BF10B5054C05
:100A9000237833B9044B13B10448AFF3008001232A
:100AA000237010BD1000002000000000B0390008C5
:100AB00008B5034B1BB103490348AFF3008008BDE1
:100AC0000000000014000020B039000870B5054691
:100AD00060230360002484600461C4608461446115
:100AE0000DE004EB440605EB8606326A2946F06900
:100AF00001F05CFB316AF06901F004FC0134022C66
:100B0000EFDD00260DE006EB460405EB8404626C85
:100B10002946206C01F04AFB616C206C01F0F2FB6D
:100B20000136022EEFDD70BD002314E0043A0C2ADA
:100B30003ED8DFE802F0073D3D3D223D3D3D2B3DE7
:100B40003D3D340003EB430200EB8202D1690968AA
:100B5000928C8A630133022B33DC03EB430200EBFC
:100B60008202126A002AE1D103EB430200EB820207
:100B7000D1690968928C4A63ECE703EB430200EB0E
:100B80008202D1690968928CCA63E3E703EB4302EE
:100B900000EB8202D1690968928C0A64DAE703EB00
:100BA000430200EB8202D1690968928C8A65D1E721
:100BB00003EB430200EB8202D1690968928CCA659B
:100BC000C8E7002315E0043A0C2A43D8DFE802F016
:100BD00007424242244242422E424242380003EB44
:100BE000430200EB8202116C0968B2F848208A6364
:100BF0000133022B38DC03EB430200EB8202526C20
:100C0000002AE0D103EB430200EB8202116C096879
:100C1000B2F848204A63EBE703EB430200EB8202A1
:100C2000116C0968B2F84820CA63E1E703EB43029C
:100C300000EB8202116C0968B2F848200A64D7E719
:100C400003EB430200EB8202116C0968B2F8482002
:100C50008A65CDE703EB430200EB8202116C096861
:100C6000B2F84820CA65C3E7704702291ED808B504
:100C7000002A0DDB01EB410300EB83034FF0000C76
:100C8000A3F848C002EB82029A84FFF74DFF08BD2B
:100C900001EB410300EB83034FF0000CA3F824C0E9
:100CA000524202EB8202A3F84820EEE770470000B0
:100CB00082B0064BDA6C42F00102DA64DB6C03F0BE
:100CC00001030193019B02B0704700BF0010024076
:100CD00072B6FEE710B596B00024139414941594E0
:100CE0000C940D940E940F941094119412942C2241
:100CF000214601A801F024FC2C482D4B03604460E0
:100D0000846041F28833C36004614461846101F00E
:100D1000E3F900283DD1002313931493159313A9ED
:100D2000224801F08BFB002835D160230C93002270
:100D30000D920E920F921092119212920CA91B48D2
:100D400001F034FA48BB04220CA9184801F02EFA2D
:100D500028BB0C220CA9154801F028FA08BB002377
:100D6000019302930393049305934FF40052069268
:100D7000079308934FF0007209920A930B9301A90D
:100D80000A4801F093FB70B9084800F063F916B007
:100D900010BDFFF79DFFFFF79BFFFFF799FFFFF7E0
:100DA00097FFFFF795FFFFF793FF00BF7800002044
:100DB000002C014000B58BB00023079308930993E2
:100DC00000930193029303930493059306931F48A2
:100DD0004FF0804202604360836041F28832C2601B
:100DE0000361836101F078F928BB0023079309931D
:100DF00007A9164801F022FBF8B9602300930023ED
:100E000001930293049304226946104801F0CEF93D
:100E1000A8B9082269460D4801F0C8F988B90C2222
:100E200069460A4801F0C2F968B9084800F012F9A9
:100E30000BB05DF804FBFFF74BFFFFF749FFFFF72F
:100E400047FFFFF745FFFFF743FF00BF2C000020DF
:100E500000B597B04422002105A801F071FB0023E2
:100E6000009301930293039304934FF4007000F0F6
:100E700019FB20BB1023059301220B9200230C9336
:100E800060230D9302230F9310921192202212924D
:100E9000072213921493159305A800F0EDFB80B977
:100EA0000F230093032101910023029303930493E2
:100EB000684600F017FF30B917B05DF804FBFFF784
:100EC00007FFFFF705FFFFF703FF0000000000002A
:100ED000D0B59AB000F062F9FFF7BAFFFFF7E8FE6D
:100EE000FFF7F8FEFFF766FF374F089700240994D5
:100EF0000B9704220C920E970C230F93334E1196EE
:100F000012921496082215921796189301A8FFF7CB
:100F1000DDFD3B685C6233685C622046FFF78AFA5D
:100F200023A3D3E90023FFF7EFFA0022284BFFF7B2
:100F300015FC06460F4601F0DFFB0022254BFFF7AC
:100F4000E3FAFFF7F3FC0246002101A8FFF78DFE4C
:100F500019A3D3E9002330463946FFF71FF901F002
:100F6000CBFB00221B4BFFF7CFFAFFF7DFFC02465B
:100F7000012101A8FFF779FE11A3D3E90023304630
:100F80003946FFF70BF901F0B7FB0022114BFFF7D1
:100F9000BBFAFFF7CBFC0246022101A8FFF765FE72
:100FA0000A2000F01DF90134A4B2B6E7AFF30080C7
:100FB0006F1283C0CA210940F5B6ACD531C10040DB
:100FC000F5B6ACD531C11040780000202C000020CF
:100FD00000407F4000E0854082B00A4B1A6E42F02C
:100FE00001021A661A6E02F001020092009A9A6DCE
:100FF00042F080529A659B6D03F080530193019BF0
:1010000002B070470010024082B003680F4A93425A
:1010100004D0B3F1804F0CD002B070470C4B1A6E65
:1010200042F400621A661B6E03F400630093009B97
:10103000F2E703F504339A6D42F001029A659B6D65
:1010400003F001030193019BE6E700BF002C014080
:101050000010024000B589B0002303930493059368
:101060000693079303681B4A934205D0B3F1804F60
:1010700019D009B05DF804FB174BDA6C42F001029D
:10108000DA64DB6C03F001030193019B4FF43063DE
:101090000393022304930123079303A94FF0904085
:1010A00000F01CF9E5E703F50433DA6C42F00102C5
:1010B000DA64DB6C03F001030293029B0E230393BB
:1010C000022304930123079303A94FF0904000F0FB
:1010D00005F9CEE7002C014000100240FEE7FEE7D4
:1010E000FEE7FEE7FEE770477047704708B500F07F
:1010F00065F808BD70470000DFF834D0FFF7FAFF4D
:101100000C480D490D4A002302E0D458C450043362
:10111000C4188C42F9D30A4A0A4C002301E0136038
:101120000432A242FBD301F05DFAFFF7D1FEFEE7E5
:10113000000001200000002010000020EC3B00080F
:101140001000002060020020FEE70000104B1B781A
:101150000BB90120704710B504464FF47A70B0FB0C
:10116000F3F30C4A1068B0FBF3F000F0A3F868B991
:101170000F2C01D901200AE0002221464FF0FF3058
:1011800000F088F8044B1C60002000E0012010BD36
:1011900004000020000000200800002010B50320FB
:1011A00000F066F80F20FFF7D1FF10B101242046B0
:1011B00010BD0446FFF710FFF9E70000034B1B7852
:1011C000034A11680B441360704700BF04000020FD
:1011D000C4000020014B1868704700BFC400002005
:1011E00038B50446FFF7F6FF0546B4F1FF3F02D0DD
:1011F000044B1B781C44FFF7EDFF401BA042FAD3C1
:1012000038BD00BF04000020002808DB0901C9B276
:1012100000F1604000F5614080F80013704700F075
:101220000F000901C9B2014B1954704714ED00E0D9
:1012300000B500F00700C0F1070CBCF1040F28BF97
:101240004FF0040C031D062B0FD9C31E4FF0FF3EB9
:101250000EFA0CF021EA000199400EFA03FE22EA90
:101260000E0241EA02005DF804FB0023EEE70000F5
:10127000074AD36823F4E0631B041B0C000200F44C
:10128000E060034343F0BF6343F40033D36070472F
:1012900000ED00E010B50446054BD868C0F302200D
:1012A000FFF7C6FF01462046FFF7AEFF10BD00BFA7
:1012B00000ED00E00138B0F1807F0BD24FF0E02369
:1012C0005861054AF02182F8231000209861072216
:1012D0001A6170470120704700ED00E070B582B0E0
:1012E000002365E085685E000324B44025EA040518
:1012F000CC68B4402C438460456825EA0C054C68F2
:10130000C4F300149C402C43446062E0DD080835BF
:1013100050F8254003F0070C4FEA8C0C4FF00F0EED
:101320000EFA0CFE24EA0E0E0C6904FA0CF444EAE0
:101330000E0440F8254063E0022400E0002404FA93
:101340000EF42C430CF1020C4E4D45F82C404E4C43
:10135000A568D44325EA0206D1F804C01CF4801F16
:1013600001D042EA0506484DAE60ED6804EA050684
:10137000D1F804C01CF4001F01D042EA0506424D1A
:10138000EE606D6804EA0506D1F804C01CF4003F65
:1013900001D042EA05063C4D6E602D682C404E6837
:1013A00016F4803F01D042EA0504374A1460013345
:1013B0000A6832FA03F462D04FF0010C0CFA03FC15
:1013C0001CEA0202F3D04C6804F00304013C012C37
:1013D00088D94C6804F00304032C0CD0C4685D0069
:1013E0004FF0030C0CFA05FC24EA0C0C8C68AC40A2
:1013F00044EA0C04C4604C6804F00304022C85D059
:1014000004684FEA430E4FF0030C0CFA0EFC24EA7A
:101410000C0C4C6804F0030404FA0EF444EA0C04C7
:1014200004604C6814F4403FC1D0184C256E45F060
:1014300001052566246E04F001040194019C4FEA25
:10144000930C0CF102050F4C54F8255003F0030ED9
:101450004FEA8E0E0F2404FA0EF425EA0405B0F1CB
:10146000904F3FF46BAF0A4CA04206D004F5806465
:10147000A0423FF461AF072461E701245FE702B0B7
:1014800070BD00BF00000140000401400010024098
:1014900000040048024B186800F4C060704700BFA9
:1014A00000700040B0F5007F0FD01F4B1B6803F4A5
:1014B000C063B3F5806F34D01B4A136823F4C06354
:1014C00043F48063136000207047174B1B6803F4DC
:1014D000C063B3F5007F20D0134A136823F4C063C0
:1014E00043F400731360114B1B68322202FB03F3B9
:1014F0000F4AA2FB03239B0C013300E0013B0A4A85
:10150000526912F4806F01D0002BF7D1064B5B6952
:1015100013F4806F03D10020704700207047032030
:1015200070470020704700BF00700040000000209E
:1015300083DE1B4330B583B00446204B9B6D13F014
:10154000805F0BD0FFF7A6FFB0F5007F17D0802C8F
:101550001FD82DD0702C2DD000211BE0174DAB6D66
:1015600043F08053AB65AB6D03F080530193019B57
:10157000FFF790FFAB6D23F08053AB65E4E7802C61
:1015800003D9A02C03D9022104E0002102E00121AB
:1015900000E003210A4A136823F007030B4313609A
:1015A000136803F007038B4206D1002003B030BD5F
:1015B0000221EFE70121EDE70120F7E700100240EB
:1015C00000200240284A9368D26802F0030213F018
:1015D0000C030AD00C2B06D0042B1FD0082B20D0D4
:1015E0000020024610E0012AF6D11F4A126812F0CC
:1015F000080F0CD11C4AD2F89420C2F303221B49D5
:1016000051F8222043B100200C2B0DD07047164A10
:101610001268C2F30312F2E71046F5E714480022FD
:10162000F2E714480022EFE70F4BDB6803F00303F7
:10163000022B16D0032B00D10E4A0B49CB68C3F303
:1016400002130133C868C0F3062002FB00F0B0FBB0
:10165000F3F0CB68C3F3416301335B00B0FBF3F0FD
:10166000D4E7034AE9E700BF00100240C839000888
:101670000024F40000127A00002800F01C83F0B56A
:1016800083B00446964B9D6805F00C05DE6806F0B5
:101690000306036813F0100F5AD0E5B10C2D18D0D3
:1016A000A369002B00F0BB808D4A136843F001034F
:1016B0001360FFF78FFD0746894B1B6813F0020F7D
:1016C00040F09A80FFF786FDC01B0228F4D9032062
:1016D000FCE2012EE4D1824B1B6813F0020F03D011
:1016E000A369002B00F0E982206A7D4B1B6813F090
:1016F000080F5BD07A4B1B6803F0F00398425CD86C
:10170000774B1A6842F008021A601A6822F0F00259
:10171000216A0A431A605A6822F47F42E16942EA68
:1017200001225A60002D60D0FFF74CFF6C4B9B6884
:10173000C3F303136B4AD35C03F01F03D8406A4B17
:1017400018606A4B1868FFF701FD002840F0BE8260
:10175000236813F0010F00F08180082D75D00C2D47
:1017600071D06368B3F5803F00F09780B3F5A02F88
:1017700000F099805A4B1A6822F480321A601A6875
:1017800022F480221A606368002B00F09980FFF732
:1017900021FD0746524B1B6813F4003F5ED1FFF753
:1017A00019FDC01B6428F5D903208FE24C4BD3F8F8
:1017B00094301B0903F0F003A0E7FFF7BBFE0028FD
:1017C00040F07D82464B1A6842F008021A601A689F
:1017D00022F0F002216A0A431A605A6822F47F421A
:1017E000E16942EA01225A609EE7206AFFF7A2FE01
:1017F000002899D0012069E2394B1A6842F00802AA
:101800001A601A6822F0F002216A0A431A605A68C4
:1018100022F47F42E16942EA01225A6098E7304AA5
:10182000136823F001031360FFF7D4FC07462C4B29
:101830001B6813F0020F8BD0FFF7CCFCC01B0228F3
:10184000F5D9032042E2032E8BD1254B1B6813F4FC
:10185000003F03D06368002B00F03382236813F04D
:10186000020F58D0042D45D00C2D41D0E368002B39
:1018700077D01B4A136843F480731360FFF7AAFC08
:101880000646174B1B6813F4806F61D1FFF7A2FC6B
:10189000801B0228F5D9032018E2114A136843F48B
:1018A000803313606FE703F18043A3F53C331A687C
:1018B00042F480221A601A6842F480321A6062E7A9
:1018C000FFF788FC0746064B1B6813F4003FC5D0A2
:1018D000FFF780FCC01B6428F5D90320F6E100BFA8
:1018E00000100240F8390008000000200800002025
:1018F000022EBBD1A44B1B6813F4806F03D0E368A6
:10190000002B00F0E081A04A536823F0F8532169CE
:1019100043EA01635360236813F0080F4CD06369F6
:101920009BB3994AD2F8943043F00103C2F8943043
:10193000FFF750FC0646944BD3F8943013F0020F97
:101940003AD1FFF747FC801B0228F4D90320BDE100
:101950008D4A536823F0F853216943EA01635360C9
:10196000D9E7894A136823F480731360FFF732FCC8
:101970000646854B1B6813F4806FCCD0FFF72AFC1A
:10198000801B0228F5D90320A0E17F4AD2F89430C9
:1019900023F00103C2F89430FFF71CFC06467A4B93
:1019A000D3F8943013F0020F06D0FFF713FC801B1E
:1019B0000228F4D9032089E1236813F0040F7AD0B8
:1019C000714B9B6D13F0805F36D16F4B9A6D42F077
:1019D00080529A659B6D03F080530193019B012611
:1019E0006A4B1B6813F4807F28D0A368012B39D081
:1019F000052B3FD0644BD3F8902022F00102C3F8AE
:101A00009020D3F8902022F00402C3F89020A3681D
:101A1000002B3DD0FFF7DEFB07465B4BD3F8903041
:101A200013F0020F46D1FFF7D5FBC01B41F28833FC
:101A30009842F2D9032049E10026D1E7534A1368BE
:101A400043F480731360FFF7C5FB07464F4B1B68D9
:101A500013F4807FC9D1FFF7BDFBC01B0228F5D965
:101A6000032033E1484AD2F8903043F00103C2F832
:101A70009030CCE7444BD3F8902042F00402C3F8F6
:101A80009020D3F8902042F00102C3F89020BEE7E6
:101A9000FFF7A0FB07463C4BD3F8903013F0020F42
:101AA00008D0FFF797FBC01B41F288339842F2D968
:101AB00003200BE1E6B9236813F0200F35D0636AE9
:101AC000E3B1314AD2F8983043F00103C2F89830BC
:101AD000FFF780FB06462C4BD3F8983013F0020F2B
:101AE00023D1FFF777FB801B0228F4D90320EDE018
:101AF000254A936D23F080539365DCE7224AD2F8A0
:101B0000983023F00103C2F89830FFF763FB0646D4
:101B10001D4BD3F8983013F0020F06D0FFF75AFB95
:101B2000801B0228F4D90320D0E0A36A002B00F028
:101B3000CC80022B17D00C2D00F0CC80124A1368F9
:101B400023F080731360FFF745FB04460E4B1B68C0
:101B500013F0007F00F0A880FFF73CFB001B022879
:101B6000F4D90320B2E0084BDB6803F00301E26A1A
:101B700091420DD00C2D00F0AB80034B1B6813F08D
:101B8000806F2FD00120A1E00010024000700040C3
:101B900003F07002216B0139B2EB011FEAD103F4AB
:101BA000FE42616BB2EB012FE4D103F07842A16BEE
:101BB000B2EBC16FDED103F4C001E26B5208013A0F
:101BC000B1EB425FD6D103F0C063226C5208013AF8
:101BD000B3EB426FCED1404B1B6813F0007F49D06E
:101BE000002073E03C4A136823F080731360FFF712
:101BF000F1FA0546384B1B6813F0007F06D0FFF75B
:101C0000E9FA401B0228F5D903205FE0324AD36885
:101C100032491940E36A206B013843EA0013606BD4
:101C200043EA0023E06B4008013843EA4053206C4C
:101C30004008013843EA4063A06B43EAC06319439C
:101C4000D160136843F080731360D36843F08073EE
:101C5000D360FFF7BFFA04461F4B1B6813F0007FE9
:101C600006D1FFF7B7FA001B0228F5D903202DE0B3
:101C700000202BE0184B1A6842F080721A60DA6874
:101C800042F08072DA60FFF7A5FA0446124B1B6837
:101C900013F0007F06D1FFF79DFA031B022BF5D945
:101CA000032013E0002011E00B4AD1680C4B0B40DD
:101CB000D36000200AE001207047012006E00120E7
:101CC00004E0012002E0012000E0002003B0F0BDAC
:101CD0000120FBE70120F9E7001002408C809D0104
:101CE000FCFFEEFE002800F0AF8070B50D46044604
:101CF000594B1B6803F007038B420BD2564A1368FB
:101D000023F007030B431360136803F007038B42B0
:101D100040F09C80236813F0020F0CD0A2684F4B58
:101D20009B6803F0F0039A4205D94C498B6823F075
:101D3000F0031A438A60236813F0010F39D06368F7
:101D4000032B09D0022B26D063BB444A126812F041
:101D5000020F06D1012076E0404A126812F0007F9F
:101D600076D03E498A6822F0030213438B60FFF766
:101D700031FA0646394B9B6803F00C036268B3EBFB
:101D8000820F16D0FFF726FA801B41F28833984263
:101D9000F0D9032057E0314A126812F4003FE0D135
:101DA000012050E02D4A126812F4806FD9D1012031
:101DB00049E0236813F0020F0CD0A268274B9B6800
:101DC00003F0F0039A4205D224498B6823F0F00314
:101DD0001A438A60204B1B6803F00703AB420AD901
:101DE0001D4A136823F007032B431360136803F0A5
:101DF0000703AB422ED1236813F0040F06D0174A15
:101E0000936823F4E063E1680B439360236813F065
:101E1000080F07D0114A936823F46053216943EAFD
:101E2000C1039360FFF7CEFB0C4B9B68C3F3031316
:101E30000B4AD35C03F01F03D8400A4B18600A4BCF
:101E40001868FFF783F970BD012070470120FAE799
:101E50000120F8E70120F6E70020024000100240D0
:101E6000F8390008000000200800002030B4036AA0
:101E700023F001030362026A4468836923F4803318
:101E800023F073030D681D4322F002028B68134395
:101E9000144A904207D002F5A052904203D002F5B6
:101EA0008062904205D123F00803CA681A4322F0E9
:101EB00004030C4A904207D002F5A052904203D08E
:101EC00002F58062904205D124F440744A692243AD
:101ED0008C691443446085614A684263036230BC84
:101EE000704700BF002C014030B4036A23F48073B4
:101EF0000362036A4468C26922F4803222F07302EA
:101F00000D68154323F400738A6843EA0223104ADC
:101F1000904207D00F4A90420BD002F58062904267
:101F20000FD106E023F40063CA6843EA022323F4D6
:101F3000806324F440544A6944EA02148A6944EAFA
:101F400002144460C5614A68C263036230BC7047D2
:101F5000002C01400040014030B4036A23F4805358
:101F60000362026A4468C36923F0807323F4E64382
:101F70000D6843EA052322F400528D6842EA0532D7
:101F80000B4DA84207D005F5A055A84203D005F592
:101F90008065A84204D124F480444D6944EA851444
:101FA0004460C3614B680364026230BC704700BF89
:101FB000002C014030B4036A23F480330362036AC7
:101FC0004468426D22F4803222F070020D682A4388
:101FD00023F400338D6843EA05430B4DA84207D034
:101FE00005F5A055A84203D005F58065A84204D1A7
:101FF00024F480344D6944EA0524446042654A680B
:102000008265036230BC7047002C014030B4036A23
:1020100023F480130362026A4468436D23F08073E3
:1020200023F4E0430D6843EA052322F400128D688F
:1020300042EA05520B4DA84207D005F5A055A8422B
:1020400003D005F58065A84204D124F480244D69AD
:1020500044EA8524446043654B68C365026230BC32
:10206000704700BF002C014003681A4A904202D01A
:10207000B0F1804F03D123F070034A681343154A2F
:1020800090420AD0B0F1804F07D002F5A0529042A2
:1020900003D002F58062904203D123F44073CA68F2
:1020A000134323F080034A69134303608B68C362C0
:1020B0000B688362074B984207D003F5A053984200
:1020C00003D003F58063984201D10B6903630123B8
:1020D00043617047002C014060B310B5044690F88E
:1020E0003D3013B3022384F83D30214651F8040BF0
:1020F000FFF7BAFF012384F8483084F83E3084F8B3
:102100003F3084F8403084F8413084F8423084F81D
:10211000433084F8443084F8453084F8463084F8FD
:10212000473084F83D30002010BD80F83C30FEF789
:102130006BFFD7E70120704730B4036A23F0100328
:102140000362036A4468826922F0807222F4E642E4
:102150000D6842EA052223F020038D6843EA051347
:10216000104DA84207D0104DA8420BD005F5806550
:10217000A8420FD106E023F08003CD6843EA05139F
:1021800023F0400324F440644D6944EA85048D69DA
:1021900044EA8504446082614A688263036230BC19
:1021A000704700BF002C01400040014038B590F856
:1021B0003C30012B00F0958004460D46012380F849
:1021C0003C30142A00F28880DFE802F00B86868615
:1021D0001F86868634868686488686865D868686BF
:1021E00071000068FFF742FE2268936943F008031C
:1021F00093612268936923F00403936122689369D1
:1022000029690B439361002067E00068FFF794FFA2
:102210002268936943F4006393612268936923F40D
:102220008063936122689369296943EA012393617A
:10223000002052E00068FFF757FE2268D36943F0A0
:102240000803D3612268D36923F00403D3612268B1
:10225000D36929690B43D36100203EE00068FFF792
:102260007BFE2268D36943F40063D3612268D3699B
:1022700023F48063D3612268D369296943EA012387
:10228000D361002029E00068FFF794FE2268536DB7
:1022900043F0080353652268536D23F0040353652C
:1022A0002268536D29690B435365002015E00068CF
:1022B000FFF7ACFE2268536D43F400635365226858
:1022C000536D23F4806353652268536D296943EA93
:1022D00001235365002000E00120002384F83C30F6
:1022E00038BD0220FCE701F01F014FF0010C0CFA91
:1022F00001FC036A23EA0C030362036A8A40134366
:102300000362704710B5044610293BD8DFE801F09E
:10231000093A3A3A1E3A3A3A253A3A3A2C3A3A3A8D
:10232000330090F83E30DBB2013B18BF0123002B95
:1023300079D1102965D8DFE801F02C646464546415
:102340006464586464645C646464600090F83F3062
:10235000DBB2013B18BF0123E9E790F84030DBB264
:10236000013B18BF0123E2E790F84130DBB2013BAB
:1023700018BF0123DBE790F84230DBB2013B18BF06
:102380000123D4E790F84330DBB2013B18BF0123AF
:10239000CDE7022384F83E3001222068FFF7A3FF37
:1023A0002368244A934207D002F5A052934203D0F7
:1023B00002F58062934203D15A6C42F400425A649F
:1023C00023681C4A934220D0B3F1804F1DD002F500
:1023D000A052934219D01A6842F001021A600020FC
:1023E00022E0022384F83F30D6E7022384F840300D
:1023F000D2E7022384F84130CEE7022384F842304A
:10240000CAE7022384F84330C6E799680A4A0A40BB
:10241000062A0AD0B2F5803F09D01A6842F00102BC
:102420001A60002000E0012010BD0020FCE7002021
:10243000FAE700BF002C01400700010090F83C20A3
:10244000012A2FD030B40346012280F83C2002221A
:1024500080F83D20006842688468134DA8421CD073
:1024600022F070020D682A4342601A680E488242C8
:1024700006D0B2F1804F03D000F5A050824204D1C3
:1024800024F08004896821439160012283F83D2073
:10249000002083F83C0030BC704722F470024D6885
:1024A0002A43DDE702207047002C014090F83C30C1
:1024B000012B3AD010B40246012380F83C30CB689F
:1024C00023F440738868034323F48063486803431C
:1024D00023F400630868034323F48053086903432B
:1024E00023F400534869034323F48043886A034379
:1024F00023F47023886943EA004310680C4CA0421F
:1025000005D04364002082F83C0010BC704723F4DF
:1025100070034C6A43EA045323F08073CC6923436D
:1025200023F00073096A0B43EBE70220704700BFFA
:10253000002C0140002301461A46184600F092B8CC
:10254000830730B547D0541E002A3ED0CAB2034696
:1025500001E0013C39D303F8012B9D07F9D1032C8D
:102560002CD9CDB205EB05250F2C05EB054535D94A
:10257000A4F1100222F00F0C03F1100EE6444FEA12
:10258000121C1A46156055609560D5601032724570
:10259000F8D10CF1010214F00C0F03EB021204F05D
:1025A0000F0C13D0ACF1040323F0030304331344E2
:1025B00042F8045B9A42FBD10CF003042CB1C9B27F
:1025C0001C4403F8011B9C42FBD130BD64461346FA
:1025D000002CF4D1F9E703461446C0E71A46A44696
:1025E000E0E700BF70B50F4B0F4DAB42A3EB050604
:1025F00007D0B610002455F8043B01349847A64292
:10260000F9D801F0D5F9094D094B5E1BAB424FEAF1
:10261000A60606D0002455F8043B01349847A6428C
:10262000F9D870BDE03B0008E03B0008E03B000843
:10263000E83B000838B5074D074C2C1BA41005D00B
:10264000013C55F8043D9847002CF9D1BDE83840CD
:1026500001F0B4B9EC3B0008E83B0008704700BF4C
:10266000704700BF2DE9F8431B4D06462868984681
:102670000F469146FFF7F2FF184B1C681CB3286801
:1026800065681F2D22DC4EB96B1C0235636044F86F
:102690002570FFF7E5FF0020BDE8F88304EB850116
:1026A0000123C1F88890D4F88821AB401A43022E48
:1026B000C4F88821C1F80881E6D1D4F88C211A43E6
:1026C000C4F88C21E0E7064C1C60D8E7FFF7C8FF90
:1026D0004FF0FF30E0E700BF0C0000205C0200205C
:1026E000CC000020024B13B10248FFF723BF704714
:1026F000000000003526000830B5224A21F00043D2
:10270000934287B01CD9204A934205D902460B4612
:10271000FDF742FD07B030BD02AA00F019FA00F043
:102720000300012814D0022822D0C0B1DDE904231F
:10273000DDE9020100F02CF801F1004107B030BDE5
:10274000002300930022002300F04AF907B030BDB7
:10275000DDE90423DDE9020100F01AF8DAE70124DB
:10276000DDE90423DDE90201009400F039F9D1E745
:102770000124DDE90423DDE90201009400F030F9D1
:10278000DAE700BFFB21E93FFFFFEF7F0000000019
:102790002DE9F04F21F00048B8F1795F85B09246FD
:1027A0009B4606460F466DD2FEF7C0F8002800F0A3
:1027B000EE8032463B4630463946FDF7A5FE76A30D
:1027C000D3E9002304460D46FDF79EFE74A3D3E92A
:1027D0000023FDF7E3FC22462B46FDF795FE72A38E
:1027E000D3E90023FDF7D8FC22462B46FDF78CFEEB
:1027F0006FA3D3E90023FDF7D1FC22462B46FDF75A
:1028000083FE6DA3D3E90023FDF7C6FC22462B46C9
:10281000FDF77AFE6AA3D3E90023FDF7BFFC224649
:102820002B46FDF771FECDE90001674B00222046E3
:102830002946FDF769FEDDE90023804689462046EA
:102840002946FDF761FE44464D468046894652467C
:102850005B4630463946FDF757FE02460B4640467A
:102860004946FDF799FC02460B4620462946FDF7EE
:1028700093FC02460B4600205449FDF78DFC05B041
:10288000BDE8F08F02460B46FDF73EFE42A3D3E9BA
:10289000002304460D46FDF737FE41A3D3E900238C
:1028A000FDF77CFC22462B46FDF72EFE3EA3D3E926
:1028B0000023FDF771FC22462B46FDF725FE3CA3C5
:1028C000D3E90023FDF76AFC22462B46FDF71CFEE8
:1028D00039A3D3E90023FDF75FFC22462B46FDF721
:1028E00013FE37A3D3E90023FDF758FC2B462246FD
:1028F000FDF70AFE364B9845CDE9000195D9354BD9
:1029000098454FF000023AD8A8F500132F4900204F
:1029100090469946FDF740FCCDE902012A4B002282
:1029200020462946FDF7F0FD42464B46FDF734FCB4
:10293000DDE900238046894620462946FDF7E4FD6F
:1029400044464D468046894652465B4630463946A7
:10295000FDF7DAFD02460B4640464946FDF71CFCF2
:1029600002460B4620462946FDF716FC02460B465A
:10297000DDE90201FDF710FC05B0BDE8F08F164B54
:10298000DFF85890CDE902234FF00008C6E70F4961
:10299000002005B0BDE8F08FD43888BEE9FAA8BDA4
:1029A000C4B1B4BD9EEE213EAD529C804F7E923E9E
:1029B0009015CB19A001FA3E7751C1166CC1563F54
:1029C0004C5555555555A53F0000E03F0000F03FE0
:1029D0003233D33F0000E93F0000E73F0000D23F21
:1029E0002DE9F04F994621F00043B3F1795F85B0AE
:1029F000904604460D4604D2FDF798FF002800F0EB
:102A0000858022462B4620462946FDF77DFD064659
:102A10000F4602460B4620462946FDF775FD3EA3AC
:102A2000D3E9002382468B4630463946FDF76CFDDC
:102A30003BA3D3E90023FDF7AFFB32463B46FDF74E
:102A400063FD39A3D3E90023FDF7A8FB32463B46DB
:102A5000FDF75AFD36A3D3E90023FDF79DFB32466F
:102A60003B46FDF751FD34A3D3E90023FDF796FB68
:102A70000E9BCDE900019BB3334B002240464946F3
:102A8000FDF742FDDDE90023CDE90201504659463C
:102A9000FDF73AFD02460B46DDE90201FDF77CFB3E
:102AA00032463B46FDF730FD42464B46FDF774FB90
:102AB00023A3D3E9002306460F4650465946FDF7A7
:102AC00023FD02460B4630463946FDF767FB0246BA
:102AD0000B4620462946FDF75FFB05B0BDE8F08FA9
:102AE00002460B4630463946FDF70EFD14A3D3E9E6
:102AF0000023FDF751FB52465B46FDF705FD2246DC
:102B00002B46FDF74BFB05B0BDE8F08F204629466C
:102B100005B0BDE8F08F00BF7CD5CF5A3AD9E53D6E
:102B2000EB9C2B8AE6E55A3E7DFEB157E31DC73E7E
:102B3000D561C119A0012A3FA6F810111111813FDA
:102B4000495555555555C53F0000E03F0000000070
:102B50002DE9F04F964B21F000449C428FB0064681
:102B60000F46914640F28C80924B9C428A4628D870
:102B7000002985A3D3E9002340F3AD81FDF70CFBC9
:102B80008D4B9C4206460F4600F08A8080A3D3E915
:102B90000023FDF701FB04460D4622462B46304636
:102BA0003946FDF7F9FA7AA3D3E90023FDF7F4FAE1
:102BB000C9E90201C9E90045012528460FB0BDE871
:102BC000F08F7E4B9C4240F285807D4B9C420246BA
:102BD0005ED84FEA2458A8F21648A4EB08573946A5
:102BE000FDF7A4FEFDF726FC02460B4630463946AB
:102BF000CDE90823FDF7D0FA724B0022FDF784FCE3
:102C00000F460646FDF792FEFDF714FC02460B4602
:102C100030463946CDE90A23FDF7BEFA694B00225A
:102C2000FDF772FCCDE90C010EAD03240026002750
:102C300075E9020132463B46A346013CFDF7F4FE2E
:102C40000028F5D1604B01930223009342465B4676
:102C5000494608A800F096F9BAF1000F0546ACDA2B
:102C6000D9E9002101F10043D9F80C10C9E900238A
:102C7000D9F8082001F10043C9E9022345429CE745
:102C800000220023C9E90067C9E90223002594E76F
:102C90000B46FDF781FAC9E90201C9E90001F5E730
:102CA0003DA3D3E90023FDF777FA3DA3D3E9002341
:102CB00006460F46FDF770FA04460D4622462B469F
:102CC00030463946FDF768FA35A3D3E90023FDF70E
:102CD00063FA6DE700F052F933A3D3E90023064607
:102CE0000F46FDF711FC394B0022FDF757FAFDF7AF
:102CF0001DFE0546FDF79EFB02460B46CDE9062369
:102D000021A3D3E90023FDF7FFFB02460B46304623
:102D10003946FDF741FA1EA3D3E90023CDE90201AC
:102D2000DDE90601FDF7F0FB1F2D06460F46CDE954
:102D300004674FDC264B6A1E53F82230A34249D069
:102D400002460B46DDE90201FDF726FA06460F466C
:102D500032463B46C9E90067DDE90201FDF71CFA8E
:102D6000DDE90423FDF718FABAF1000FC9E9020101
:102D7000BFF623AF07F10043C9E9006301F1004347
:102D8000C9E902036D4218E700004054FB21F93FF6
:102D90003163621A61B4D03D0000601A61B4D03D65
:102DA0007370032E8A19A33B83C8C96D305FE43F5B
:102DB000FB21E93F7BD90240FB21F93FFB2139414F
:102DC000FFFFEF7F00007041883A00080000E03FFD
:102DD000083A0008DDE90423DDE90201FDF7DCF92A
:102DE000C1F30A53C3EB1453102B4FEA2458064681
:102DF0000F46ADDD56A3D3E90023DDE90601FDF75B
:102E000083FB06460F4602460B46DDE90201FDF74D
:102E1000C3F903460C461A46DDE90201CDE9023446
:102E20002346FDF7B9F932463B46FDF7B5F94AA30B
:102E3000D3E9002306460F46DDE90601FDF764FBF2
:102E400032463B46FDF7A8F90B460246DDE9020192
:102E5000CDE90423FDF7A0F9C1F30A53A8EB030859
:102E6000B8F1310F06460F467FF772AF3CA3D3E9A6
:102E70000023DDE90601FDF747FB06460F46024643
:102E80000B46DDE90201FDF787F902460B46DDE955
:102E90000201CDE90223FDF77FF932463B46FDF7FB
:102EA0007BF931A3D3E9002306460F46DDE906018D
:102EB000FDF72AFB32463B46FDF76EF903460C460A
:102EC000CDE9043402460B46DDE90201FDF764F961
:102ED00006460F463CE7FDF761F9274B9C42064644
:102EE0000F4618D022A3D3E90023FDF757F9044673
:102EF0000D4622462B4630463946FDF74DF91CA3B8
:102F0000D3E90023FDF74AF9C9E90045C9E90201FF
:102F10004FF0FF3551E60EA3D3E90023FDF73EF94C
:102F20000DA3D3E9002306460F46FDF737F9044603
:102F30000D4622462B4630463946FDF72DF906A3AD
:102F4000D3E90023FDF72AF9DEE700BFAFF30080E5
:102F50000000601A61B4D03D7370032E8A19A33B40
:102F60000000002E8A19A33BC14920259A837B3992
:102F70003163621A61B4D03DFB21F93F21F0004377
:102F8000194670472DE9F04FADF51B7D9E460D911A
:102F9000BD4BA49953F82130079312F1140F0EF191
:102FA000FF3382460593C0F24783B849D31E81FBA5
:102FB0000301DB17C3EBA1030A930133A3EB8303E4
:102FC000DB00D6180A9A0EF1FF33D71A079A12EBD4
:102FD000030921D409F10109B9440DF188080096CB
:102FE000DDF894B24E460024C1460025F04608E0C4
:102FF0005BF82700FDF71EFA0137B742E9E8020146
:1030000008D0002FF4DA013720462946B742E9E814
:103010000201F6D1009EC646079B002BAAF10803C9
:103020000693B8BF4FEACE0737DB22AADDF814902B
:10303000029602EBCE0A4FEACE07079ACDE908E7DF
:103040000DF5E47B724403EBCE084B460092D94663
:103050009B46059B002BC0F2A981069E5746002483
:10306000002577E90223F6E90201FDF74DFA024651
:103070000B4620462946FDF791F8464504460D4685
:10308000EFD1009B0BF1010B9B45E9E802450AF1EA
:10309000080ADED1DDE908E7029E069B079A009246
:1030A00003EB070B0EAB03EB8203043B0B930EAB5E
:1030B00003EB8207CDF830E0009A9AAB03EBC20332
:1030C000002A53E928452DDD0DF5E47A0AEBC20804
:1030D0000DF13809029608976D4B002220462946CB
:1030E000FDF712FAFDF722FCFDF7A4F9694B002267
:1030F00006460F46FDF708FA02460B4620462946CB
:10310000FDF74AF8FDF712FC78E9022349F8040BB1
:1031100039463046FDF742F8D04504460D46DBD12E
:10312000029E089F20462946324600F049FB0022B5
:103130004FF07F5304460D46FDF7E6F900F0B4FB6F
:10314000554B0022FDF7E0F902460B462046294682
:10315000FDF722F80D460446FDF7E8FB8246FDF731
:1031600069F902460B4620462946FDF715F8002E60
:103170008046894640F39280009B0EAA581EC6F1F5
:10318000180352F8202042FA03F404FA03F3D21A87
:10319000C6F117010EAB42FA01F5002D43F82020CD
:1031A000A24400F3EA800022002340464946FDF78E
:1031B0003BFC002800F04882009B079A93420CDDFC
:1031C0000EAA02EB8303002253F8041DBB4242EA1D
:1031D0000102F9D1002A40F0F080079B0EAA013BC2
:1031E00052F82330002B40F0DC800B9A012352F878
:1031F000041D01330029FAD0009A134402F101089A
:103200000A9A0099089602EB080A0AF1804AA59AE0
:1032100002930AF1FF3A02EB8A0A0C9A09970A44D0
:1032200022A800EBC20972AA02EBC10200925AF86E
:10323000040FFDF7FFF8059B002BE9E8020120DBF6
:10324000069E4F460024002577E90223F6E9020195
:10325000FDF75AF902460B4620462946FCF79EFF29
:103260005E4504460D46EFD1009BE3E9024500931D
:10327000029B08F101089845D9DDDDE90867009354
:103280001AE700240025EFE7D03B0008ABAAAA2AE2
:103290000000703E000070410000204064D1009B9F
:1032A0000EAA013B52F82350ED15002D7FF77BAF9E
:1032B000009B002B0AF1010A40F34E820021CDE968
:1032C0000289DDF800E00EA80C466FF07F4C0FE09D
:1032D00001318E4542F8049C6BDD136808300131E2
:1032E000ACEB03038E454FF0010440F8043C0BDDCA
:1032F000024652F8043BACBBC3F18079002BE7D106
:1033000001318E451046F3DCDDE90289002E0DDD2A
:10331000012E3BD0022E09D1009B5A1E0EAB0EA9E6
:1033200053F82230C3F3150341F82230022D7FF405
:103330003AAF42464B46B3490020FCF72DFF80468A
:103340008946002C3FF42FAF3246AE49002000F0F2
:1033500037FA02460B4640464946FCF71DFF8046B9
:10336000894620E71046BAE7A74B0022FDF77AFB13
:10337000002840F04F81054615E7009B002B0AF11D
:10338000010AD8BF002499DC012EC3D1009B5A1E2C
:103390000EAB0EA953F82230C3F3160341F82230C6
:1033A000C4E7009B03F10108434629E700240025F8
:1033B00067E6DDE902890124A8E7009A0EAB541EF6
:1033C000CDE9055A53F82430183E5BB902F1804329
:1033D000013B0EAA02EB830353F8042D013C183E77
:1033E000002AF9D032468749002000F0E9F9002C84
:1033F00006460F46C0F2B68104F1010A0EAB03EB9C
:103400008A054FEACA0272ABDFF8009203EBCA0AE0
:103410004FF00008934655F8040DFDF70BF83246BF
:103420003B46FDF771F84B466AE9020142463046D9
:103430003946FDF769F80EAB9D4206460F46EAD1C4
:10344000ABF1080372A95A4601EB030A0DF5947813
:103450004FF00009CDE9084243465246A346CA460A
:10346000DDF81C90CDF81C80B9F1000FC0F2E980A6
:10347000CDF808B0DFF898810093174600260024A5
:103480000025934601E0564510DCF8E90223F7E8F1
:103490000201FDF739F802460B4620462946FCF7A3
:1034A0007DFE0136B14504460D46ECDA5A46009BD6
:1034B000DDF808B00BF1FF3BBBF1FF3FE3E802454D
:1034C0000AF1010AA2F10802CED1A49BDDF81C800A
:1034D000022BDDE908421CDC002B00F3E48011D153
:1034E00008EB02040020002174E90223FCF756FED9
:1034F000A045F9D1059B13B101F1004319460D9B7D
:10350000C3E90001069B03F007000DF51B7DBDE834
:10351000F08FA49B032BF5D1002C00F0338108EB36
:10352000C4054FEAC40AD5E90067CDE907A50095AF
:10353000A946029459E902453046394622462B46AF
:10354000FCF72CFEB246BB4606460F4632463B46CB
:1035500020462946FCF720FE52465B46FCF71EFE3D
:10356000C9E9000169E90267C145E3D1029C012C68
:10357000DDE907A500F00681D5E90045009E08F1C8
:10358000080B474656E902892046294642464B46E3
:10359000CDE90045FCF702FE04460D4622462B46C7
:1035A00040464946FCF7F8FDDDE90023FCF7F6FD4F
:1035B000C6E9000166E90245B345E3D10AF1080412
:1035C000B8463C4407F110050020002174E90223AD
:1035D000FCF7E4FDA542F9D1059BD8E90278DDE9C5
:1035E0004A45002B40F082800D9BC3E90401C3E9EA
:1035F0000045C3E90278069B03F007000DF51B7D2B
:10360000BDE8F08F0000F03F0000E03F0000703E9A
:10361000883B0008009B002B0AF1010AC8BF022565
:103620003FF74CAE42464B46022561490020FCF76D
:10363000B3FD80468946B6E500216FF017030A9175
:10364000BFE40024002535E7404649467242CDE9F3
:10365000055A00F0B5F8574B002280468946FDF721
:1036600001FA002838D0544B009F002240464946BA
:10367000FCF74AFFFDF75AF90546FCF7DBFE4D4B18
:103680000022FCF741FF0B46024649464046FCF744
:1036900083FDFDF74BF97C1C0EAB183643F8270071
:1036A00043F824509EE608EB02050020002175E94E
:1036B0000223FCF773FDA845F9D1059B5BB30D9A76
:1036C00001F100431060536002460B46DDE94A01F8
:1036D000FCF762FD4CBB32E040464946FDF726F957
:1036E000009B0EAA1C4642F823007BE6264605F105
:1036F00000440D9D08F10043C5E9027301F1004348
:10370000C5E90403069B03F00700C5E900640DF555
:103710001B7DBDE8F08F0D9B0246C3E900010B46FF
:10372000DDE94A01FCF738FD64B10125F8E902231F
:103730000135FCF733FDAC42F8DA059B13B101F11A
:10374000004319460D9BC3E90201069B03F00700E5
:103750000DF51B7DBDE8F08F022D7FF424AD0246F0
:103760000B4662E7A49B022B06DC002B0DDC7FF4EA
:10377000C9AE00200021BDE6A49B032B7FF4C2AE9E
:103780000DF594780020002126E7059B43B10D99A3
:1037900000224FF00043C1E90023DDE94A01CEE7F2
:1037A0000D9900220023C1E90023DDE94A01C9E7A0
:1037B0000000F03F000070410000703E000000007B
:1037C00070B51646C1F30A5204460D460B465ABB65
:1037D00021F00043034326D02D4B0022FCF794FE3A
:1037E0002C4B9E4204460D4643DBC1F30A520B4666
:1037F000363A4CF250318E421EDC164440F2FE72D4
:10380000964219DC002E23DC16F1350F28DB23F05D
:10381000FF4323F4E003363643EA065120461E4BAD
:103820000022FCF771FE70BD40F2FF7C6245E0D1E2
:103830000246FCF7B3FC70BD11A3D3E90023ED0FE2
:103840001C4665F3DF7421461448FCF75DFE70BD2D
:1038500023F0FF4323F4E003204643EA065170BD02
:1038600005F0004343F0D27141F4B7310C4841F008
:103870001F0105A3D3E90023FCF746FE70BD00BF7E
:103880009C7500883CE4377E59F3F8C21F6EA50191
:1038900000005043B03CFFFF0000903C9C75008846
:1038A00059F3F8C200000000C1F30A5C2DE9F041B1
:1038B000ACF2FF35132D02460B460C46064632DCB1
:1038C000002D20DBDFF8E08048FA05F801EA080C5B
:1038D0005CEA000C0F462BD031A3D3E90023FCF7A0
:1038E0005DFC00220023FDF7C7F840B1002C03DA8D
:1038F0004FF480132B411F4427EA08040026214679
:103900003046BDE8F08126A3D3E90023FCF746FC4E
:1039100000220023FDF7B0F80028F0D0002C27DBB0
:1039200000263446EBE7332D06DDB5F5806F1CD05D
:1039300010461946BDE8F081ACF2134C4FF0FF374A
:1039400027FA0CF70742F3D015A3D3E90023FCF7BD
:1039500025FC00220023FDF78FF80028CFD0002C93
:1039600033460CDB23EA0706C9E7FCF717FCE1E75F
:1039700024F0004426430DD14FF00044BFE7142D3E
:1039800006D0C5F134050122AA401344B342E9D25E
:103990000134E7E7054C0026B1E700BFAFF3008034
:1039A0009C7500883CE4377EFFFF0F000000F0BFED
:1039B000F8B500BFF8BC08BC9E467047F8B500BF1C
:0839C000F8BC08BC9E467047EC
:1039C800A0860100400D0300801A060000350C0097
:1039D80040420F0080841E0000093D0000127A005A
:1039E8000024F40000366E010048E801006CDC0297
:1039F8000000000000000000010203040607080997
:103A0800FB21F93FFB2109407CD91240FB211940D9
:103A18007A6A1F407CD92240BBFD2540FB21294002
:103A28003A462C407A6A2F405C4731407CD9324074
:103A38009C6B3440BBFD3540DB8F3740FB21394060
:103A48001BB43A403A463C405AD83D407A6A3F4017
:103A58004C7E40405C4741406C1042407CD942401B
:103A68008CA243409C6B4440AC344540BBFD454070
:103A7800CBC64640DB8F4740EB584840FB214940C6
:103A880083F9A200444E6E00FC291500D157270087
:103A9800DD34F50062DBC0003C999500419043009D
:103AA8006351FE00BBDEAB00B761C5003A6E24006F
:103AB800D24D42004906E00009EA2E001C92D100CE
:103AC800EB1DFE0029B11C00E83EA700F535820079
:103AD80044BB2E009CE98400B4267000417E5F0040
:103AE800D6913900538339009CF439008B5F8400E8
:103AF80028F9BD00F81F3B00DEFF97000F9805006E
:103B0800112FEF000A5A8B006D1F6D00CF7E360013
:103B180009CB2700464FB7009E663F002DEA5F009D
:103B2800BA277500E5EBC7003D7BF100F7390700C0
:103B380092528A00FB6BEA001FB15F00085D8D009E
:103B4800300356007BFC4600F0AB6B0020BCCF0076
:103B580036F49A00E3A91D005E619100081BE60097
:103B680085996500A0145F008D40680080D8FF002B
:103B780027734D0006063100CA561500C9A8730000
:103B88007BE260006B8CC00000000040FB21F93F25
:103B9800000000002D44743E000000809846F83C68
:103BA8000000006051CC783B00000080831BF03996
:103BB8000000004020257A38000000802282E33689
:103BC800000000001DF3693502000000030000003A
:083BD8000400000006000000DB
:083BE000E5260008B10A000807
:043BE8008D0A00083A
:103BEC0000093D000100000010000000C80000208A
:04000005080010F9E6
:00000001FF
