:020000040800F2
:1000000000000120290700080D0700080F0700085D
:10001000110700081307000815070008000000007A
:1000200000000000000000000000000017070008AA
:1000300019070008000000001B0700081D07000842
:100040007907000879070008790700087907000890
:100050007907000879070008790700087907000880
:100060007907000879070008790700087907000870
:100070007907000879070008790700087907000860
:100080007907000879070008790700087907000850
:100090007907000879070008790700087907000840
:1000A0007907000879070008790700087907000830
:1000B0007907000800000000000000007907000830
:1000C0007907000800000000000000007907000820
:1000D0000000000079070008790700080000000010
:1000E0007907000879070008000000000000000000
:1000F0000000000000000000000000000000000000
:100100000000000000000000000000007907000867
:1001100000000000000000007907000879070008CF
:1001200079070008790700087907000879070008AF
:100130007907000800000000000000000000000037
:10014000790700087907000879070008790700088F
:10015000790700087907000879070008790700087F
:1001600079070008790700087907000800000000F7
:10017000790700087907000800000000000000006F
:0C018000790700087907000879070008DB
:10018C0010B5054C237833B9044B13B10448AFF3C5
:10019C0000800123237010BD10000020000000001F
:1001AC00281D000808B5034B1BB103490348AFF3E6
:1001BC00008008BD0000000014000020281D00086D
:1001CC0070B5054660230360002484600461C4603C
:1001DC00846144610DE004EB440605EB8606726C09
:1001EC002946F06901F0F4FA716CF06901F09CFB9E
:1001FC000134022CEFDD002409E004EB440305EB91
:10020C0083035A6C2946186C01F0E2FA0134022C73
:10021C00F3DD70BD002314E0043A0C2A3ED8DFE86D
:10022C0002F0073D3D3D223D3D3D2B3D3D3D340023
:10023C0003EB430200EB8202D1690968928C8A635A
:10024C000133022B33DC03EB430200EB8202126A14
:10025C00002AE1D103EB430200EB8202D169096869
:10026C00928C4A63ECE703EB430200EB8202D16908
:10027C000968928CCA63E3E703EB430200EB82024A
:10028C00D1690968928C0A64DAE703EB430200EB4C
:10029C008202D1690968928C8A65D1E703EB43022B
:1002AC0000EB8202D1690968928CCA65C8E7002309
:1002BC0015E0043A0C2A43D8DFE802F00742424228
:1002CC00244242422E424242380003EB430200EBEE
:1002DC008202116C0968B2F848208A630133022B40
:1002EC0038DC03EB430200EB8202526C002AE0D1B3
:1002FC0003EB430200EB8202116C0968B2F8482050
:10030C004A63EBE703EB430200EB8202116C0968D2
:10031C00B2F84820CA63E1E703EB430200EB820228
:10032C00116C0968B2F848200A64D7E703EB430262
:10033C0000EB8202116C0968B2F848208A65CDE79F
:10034C0003EB430200EB8202116C0968B2F84820FF
:10035C00CA65C3E77047000082B0064BDA6C42F006
:10036C000102DA64DB6C03F001030193019B02B020
:10037C00704700BF0010024072B6FEE710B596B091
:10038C0000241394149415940C940D940E940F94BF
:10039C001094119412942C22214601A801F0E2FB36
:1003AC002C482D4B0360446084604FF47A73C36017
:1003BC0004614461846101F0A1F900283DD100235E
:1003CC0013931493159313A9224801F049FB0028A9
:1003DC0035D160230C9300220D920E920F92109245
:1003EC00119212920CA91B4801F0F2F948BB04229D
:1003FC000CA9184801F0ECF928BB08220CA91548E7
:10040C0001F0E6F908BB00230193029303930493D4
:10041C0005934FF400520692079308934FF0007225
:10042C0009920A930B9301A90A4801F051FB70B988
:10043C00084800F021F916B010BDFFF79DFFFFF73B
:10044C009BFFFFF799FFFFF797FFFFF795FFFFF76C
:10045C0093FF00BF78000020002C014000B58BB04A
:10046C00002307930893099300930193029303933A
:10047C000493059306931E484FF08042026043603C
:10048C0083604FF47A72C2600361836101F036F9C4
:10049C0020BB00230793099307A9154801F0E0FA44
:1004AC00F0B96023009300220192029204926946F3
:1004BC000F4801F08DF9A8B9042269460C4801F0E7
:1004CC0087F988B90C226946094801F081F968B9A5
:1004DC00074800F0D1F80BB05DF804FBFFF74CFFB8
:1004EC00FFF74AFFFFF748FFFFF746FFFFF744FF10
:1004FC002C00002000B597B04422002105A801F083
:10050C0031FB0023009301930293039304934FF464
:10051C00007000F0D9FA20BB1023059301220B9236
:10052C0000230C9360230D9302230F9310921192CE
:10053C0020221292072213921493159305A800F00F
:10054C00ADFB80B90F23009303210191002302938B
:10055C0003930493684600F0D7FE30B917B05DF8EA
:10056C0004FBFFF709FFFFF707FFFFF705FF00008C
:10057C0010B59AB000F024F9FFF7BCFFFFF7ECFEC2
:10058C00FFF7FCFEFFF76AFF194B08930024099450
:10059C000B9304220C920E9308230F93154B11937B
:1005AC0012941493159217930C2318930DEB0200CD
:1005BC00FFF706FE1AE002EB42018B0068330DEBED
:1005CC0003010D4BA3FB04039B094FF47A7000FB52
:1005DC00134321F8403C0132022AECDD01A8FFF75D
:1005EC0019FE0A2000F00EF90134A4B20022F3E740
:1005FC00780000202C000020D34D621082B00A4BF2
:10060C001A6E42F001021A661A6E02F00102009292
:10061C00009A9A6D42F080529A659B6D03F080535C
:10062C000193019B02B070470010024082B0036836
:10063C000F4A934204D0B3F1804F0CD002B07047F4
:10064C000C4B1A6E42F400621A661B6E03F40063C4
:10065C000093009BF2E703F504339A6D42F001021C
:10066C009A659B6D03F001030193019BE6E700BFC4
:10067C00002C01400010024000B589B00023039308
:10068C00049305930693079303681B4A934205D082
:10069C00B3F1804F19D009B05DF804FB174BDA6C3D
:1006AC0042F00102DA64DB6C03F001030193019B5D
:1006BC004FF4E0630393022304930123079303A9EC
:1006CC004FF0904000F01CF9E5E703F50433DA6CC9
:1006DC0042F00102DA64DB6C03F001030293029B2B
:1006EC002A230393022304930123079303A94FF0B6
:1006FC00904000F005F9CEE7002C014000100240BC
:10070C00FEE7FEE7FEE7FEE7FEE77047704770473F
:10071C0008B500F065F808BD70470000DFF834D06C
:10072C00FFF7FAFF0C480D490D4A002302E0D4589C
:10073C00C4500433C4188C42F9D30A4A0A4C00231F
:10074C0001E013600432A242FBD301F05DFAFFF723
:10075C000FFFFEE700000120000000201000002029
:10076C008C1D00081000002060020020FEE7000035
:10077C00104B1B780BB90120704710B504464FF491
:10078C007A70B0FBF3F30C4A1068B0FBF3F000F096
:10079C00A3F868B90F2C01D901200AE000222146E8
:1007AC004FF0FF3000F088F8044B1C60002000E094
:1007BC00012010BD040000200000002008000020D3
:1007CC0010B5032000F066F80F20FFF7D1FF10B131
:1007DC000124204610BD0446FFF710FFF9E7000086
:1007EC00034B1B78034A11680B441360704700BF1E
:1007FC0004000020C4000020014B1868704700BFA3
:10080C00C400002038B50446FFF7F6FF0546B4F1E6
:10081C00FF3F02D0044B1B781C44FFF7EDFF401B3D
:10082C00A042FAD338BD00BF04000020002808DB2A
:10083C000901C9B200F1604000F5614080F8001375
:10084C00704700F00F000901C9B2014B19547047F1
:10085C0014ED00E000B500F00700C0F1070CBCF18E
:10086C00040F28BF4FF0040C031D062B0FD9C31E19
:10087C004FF0FF3E0EFA0CF021EA000199400EFAFF
:10088C0003FE22EA0E0241EA02005DF804FB00239B
:10089C00EEE70000074AD36823F4E0631B041B0C4B
:1008AC00000200F4E060034343F0BF6343F4003301
:1008BC00D360704700ED00E010B50446054BD868D6
:1008CC00C0F30220FFF7C6FF01462046FFF7AEFF3C
:1008DC0010BD00BF00ED00E00138B0F1807F0BD2FD
:1008EC004FF0E0235861054AF02182F823100020D4
:1008FC00986107221A6170470120704700ED00E0F3
:10090C0070B582B0002365E085685E000324B440B6
:10091C0025EA0405CC68B4402C438460456825EA7C
:10092C000C054C68C4F300149C402C43446062E0FA
:10093C00DD08083550F8254003F0070C4FEA8C0C05
:10094C004FF00F0E0EFA0CFE24EA0E0E0C6904FA90
:10095C000CF444EA0E0440F8254063E0022400E065
:10096C00002404FA0EF42C430CF1020C4E4D45F805
:10097C002C404E4CA568D44325EA0206D1F804C09D
:10098C001CF4801F01D042EA0506484DAE60ED68AC
:10099C0004EA0506D1F804C01CF4001F01D042EA99
:1009AC000506424DEE606D6804EA0506D1F804C0F8
:1009BC001CF4003F01D042EA05063C4D6E602D68E8
:1009CC002C404E6816F4803F01D042EA0504374AA9
:1009DC00146001330A6832FA03F462D04FF0010C50
:1009EC000CFA03FC1CEA0202F3D04C6804F003047A
:1009FC00013C012C88D94C6804F00304032C0CD066
:100A0C00C4685D004FF0030C0CFA05FC24EA0C0CD6
:100A1C008C68AC4044EA0C04C4604C6804F00304D9
:100A2C00022C85D004684FEA430E4FF0030C0CFAED
:100A3C000EFC24EA0C0C4C6804F0030404FA0EF4CB
:100A4C0044EA0C0404604C6814F4403FC1D0184CC8
:100A5C00256E45F001052566246E04F00104019411
:100A6C00019C4FEA930C0CF102050F4C54F82550E5
:100A7C0003F0030E4FEA8E0E0F2404FA0EF425EA4F
:100A8C000405B0F1904F3FF46BAF0A4CA04206D076
:100A9C0004F58064A0423FF461AF072461E70124B0
:100AAC005FE702B070BD00BF0000014000040140D0
:100ABC000010024000040048024B186800F4C060AB
:100ACC00704700BF00700040B0F5007F0FD01F4B87
:100ADC001B6803F4C063B3F5806F34D01B4A1368F2
:100AEC0023F4C06343F48063136000207047174BFA
:100AFC001B6803F4C063B3F5007F20D0134A13685E
:100B0C0023F4C06343F400731360114B1B6832224F
:100B1C0002FB03F30F4AA2FB03239B0C013300E0FF
:100B2C00013B0A4A526912F4806F01D0002BF7D1B5
:100B3C00064B5B6913F4806F03D1002070470020D3
:100B4C007047032070470020704700BF00700040C2
:100B5C000000002083DE1B4330B583B00446204BDD
:100B6C009B6D13F0805F0BD0FFF7A6FFB0F5007FF5
:100B7C0017D0802C1FD82DD0702C2DD000211BE02D
:100B8C00174DAB6D43F08053AB65AB6D03F08053E9
:100B9C000193019BFFF790FFAB6D23F08053AB6586
:100BAC00E4E7802C03D9A02C03D9022104E0002116
:100BBC0002E0012100E003210A4A136823F0070335
:100BCC000B431360136803F007038B4206D100201C
:100BDC0003B030BD0221EFE70121EDE70120F7E77B
:100BEC000010024000200240284A9368D26802F0AC
:100BFC00030213F00C030AD00C2B06D0042B1FD0CD
:100C0C00082B20D00020024610E0012AF6D11F4A02
:100C1C00126812F0080F0CD11C4AD2F89420C2F3BF
:100C2C0003221B4951F8222043B100200C2B0DD07C
:100C3C007047164A1268C2F30312F2E71046F5E742
:100C4C0014480022F2E714480022EFE70F4BDB6850
:100C5C0003F00303022B16D0032B00D10E4A0B49D1
:100C6C00CB68C3F302130133C868C0F3062002FB40
:100C7C0000F0B0FBF3F0CB68C3F3416301335B00CE
:100C8C00B0FBF3F0D4E7034AE9E700BF00100240E1
:100C9C00401D00080024F40000127A00002800F027
:100CAC001C83F0B583B00446964B9D6805F00C058B
:100CBC00DE6806F00306036813F0100F5AD0E5B196
:100CCC000C2D18D0A369002B00F0BB808D4A136843
:100CDC0043F001031360FFF78FFD0746894B1B6838
:100CEC0013F0020F40F09A80FFF786FDC01B02281C
:100CFC00F4D90320FCE2012EE4D1824B1B6813F0E3
:100D0C00020F03D0A369002B00F0E982206A7D4B0F
:100D1C001B6813F0080F5BD07A4B1B6803F0F003D1
:100D2C0098425CD8774B1A6842F008021A601A682D
:100D3C0022F0F002216A0A431A605A6822F47F42B8
:100D4C00E16942EA01225A60002D60D0FFF74CFFA6
:100D5C006C4B9B68C3F303136B4AD35C03F01F0308
:100D6C00D8406A4B18606A4B1868FFF701FD0028E1
:100D7C0040F0BE82236813F0010F00F08180082D33
:100D8C0075D00C2D71D06368B3F5803F00F097805F
:100D9C00B3F5A02F00F099805A4B1A6822F48032D8
:100DAC001A601A6822F480221A606368002B00F023
:100DBC009980FFF721FD0746524B1B6813F4003F47
:100DCC005ED1FFF719FDC01B6428F5D903208FE213
:100DDC004C4BD3F894301B0903F0F003A0E7FFF75A
:100DEC00BBFE002840F07D82464B1A6842F0080298
:100DFC001A601A6822F0F002216A0A431A605A68D3
:100E0C0022F47F42E16942EA01225A609EE7206A9D
:100E1C00FFF7A2FE002899D0012069E2394B1A682D
:100E2C0042F008021A601A6822F0F002216A0A43A2
:100E3C001A605A6822F47F42E16942EA01225A6040
:100E4C0098E7304A136823F001031360FFF7D4FCD2
:100E5C0007462C4B1B6813F0020F8BD0FFF7CCFC12
:100E6C00C01B0228F5D9032042E2032E8BD1254B5F
:100E7C001B6813F4003F03D06368002B00F033822F
:100E8C00236813F0020F58D0042D45D00C2D41D0FF
:100E9C00E368002B77D01B4A136843F4807313600C
:100EAC00FFF7AAFC0646174B1B6813F4806F61D141
:100EBC00FFF7A2FC801B0228F5D9032018E2114A87
:100ECC00136843F4803313606FE703F18043A3F599
:100EDC003C331A6842F480221A601A6842F4803259
:100EEC001A6062E7FFF788FC0746064B1B6813F491
:100EFC00003FC5D0FFF780FCC01B6428F5D9032048
:100F0C00F6E100BF00100240701D00080000002038
:100F1C0008000020022EBBD1A44B1B6813F4806F79
:100F2C0003D0E368002B00F0E081A04A536823F063
:100F3C00F853216943EA01635360236813F0080FE7
:100F4C004CD063699BB3994AD2F8943043F00103B7
:100F5C00C2F89430FFF750FC0646944BD3F894300B
:100F6C0013F0020F3AD1FFF747FC801B0228F4D98B
:100F7C000320BDE18D4A536823F0F853216943EAFD
:100F8C0001635360D9E7894A136823F480731360B3
:100F9C00FFF732FC0646854B1B6813F4806FCCD0F0
:100FAC00FFF72AFC801B0228F5D90320A0E17F4A19
:100FBC00D2F8943023F00103C2F89430FFF71CFCF4
:100FCC0006467A4BD3F8943013F0020F06D0FFF795
:100FDC0013FC801B0228F4D9032089E1236813F049
:100FEC00040F7AD0714B9B6D13F0805F36D16F4B31
:100FFC009A6D42F080529A659B6D03F08053019379
:10100C00019B01266A4B1B6813F4807F28D0A368D0
:10101C00012B39D0052B3FD0644BD3F8902022F014
:10102C000102C3F89020D3F8902022F00402C3F8F8
:10103C009020A368002B3DD0FFF7DEFB07465B4BEF
:10104C00D3F8903013F0020F46D1FFF7D5FBC01B3D
:10105C0041F288339842F2D9032049E10026D1E7C6
:10106C00534A136843F480731360FFF7C5FB0746BC
:10107C004F4B1B6813F4807FC9D1FFF7BDFBC01B1E
:10108C000228F5D9032033E1484AD2F8903043F0D6
:10109C000103C2F89030CCE7444BD3F8902042F0D7
:1010AC000402C3F89020D3F8902042F00102C3F858
:1010BC009020BEE7FFF7A0FB07463C4BD3F89030DF
:1010CC0013F0020F08D0FFF797FBC01B41F28833D7
:1010DC009842F2D903200BE1E6B9236813F0200FF4
:1010EC0035D0636AE3B1314AD2F8983043F001034A
:1010FC00C2F89830FFF780FB06462C4BD3F898309B
:10110C0013F0020F23D1FFF777FB801B0228F4D9D1
:10111C000320EDE0254A936D23F080539365DCE7C3
:10112C00224AD2F8983023F00103C2F89830FFF726
:10113C0063FB06461D4BD3F8983013F0020F06D014
:10114C00FFF75AFB801B0228F4D90320D0E0A36AD6
:10115C00002B00F0CC80022B17D00C2D00F0CC8093
:10116C00124A136823F080731360FFF745FB0446A3
:10117C000E4B1B6813F0007F00F0A880FFF73CFBC0
:10118C00001B0228F4D90320B2E0084BDB6803F003
:10119C000301E26A91420DD00C2D00F0AB80034BA1
:1011AC001B6813F0806F2FD00120A1E000100240CB
:1011BC000070004003F07002216B0139B2EB011F8B
:1011CC00EAD103F4FE42616BB2EB012FE4D103F0E0
:1011DC007842A16BB2EBC16FDED103F4C001E26BBC
:1011EC005208013AB1EB425FD6D103F0C063226CD6
:1011FC005208013AB3EB426FCED1404B1B6813F04F
:10120C00007F49D0002073E03C4A136823F08073C0
:10121C001360FFF7F1FA0546384B1B6813F0007F9B
:10122C0006D0FFF7E9FA401B0228F5D903205FE04E
:10123C00324AD36832491940E36A206B013843EAD9
:10124C000013606B43EA0023E06B4008013843EA6B
:10125C004053206C4008013843EA4063A06B43EADA
:10126C00C0631943D160136843F080731360D36873
:10127C0043F08073D360FFF7BFFA04461F4B1B6823
:10128C0013F0007F06D1FFF7B7FA001B0228F5D93F
:10129C0003202DE000202BE0184B1A6842F08072DE
:1012AC001A60DA6842F08072DA60FFF7A5FA044639
:1012BC00124B1B6813F0007F06D1FFF79DFA031B3E
:1012CC00022BF5D9032013E0002011E00B4AD16862
:1012DC000C4B0B40D36000200AE00120704701202A
:1012EC0006E0012004E0012002E0012000E00020E3
:1012FC0003B0F0BD0120FBE70120F9E7001002402C
:10130C008C809D01FCFFEEFE002800F0AF8070B5D4
:10131C000D460446594B1B6803F007038B420BD256
:10132C00564A136823F007030B431360136803F04A
:10133C0007038B4240F09C80236813F0020F0CD003
:10134C00A2684F4B9B6803F0F0039A4205D94C49B5
:10135C008B6823F0F0031A438A60236813F0010FA3
:10136C0039D06368032B09D0022B26D063BB444AC7
:10137C00126812F0020F06D1012076E0404A126882
:10138C0012F0007F76D03E498A6822F003021343A4
:10139C008B60FFF731FA0646394B9B6803F00C0360
:1013AC006268B3EB820F16D0FFF726FA801B41F26E
:1013BC0088339842F0D9032057E0314A126812F46E
:1013CC00003FE0D1012050E02D4A126812F4806FEA
:1013DC00D9D1012049E0236813F0020F0CD0A26888
:1013EC00274B9B6803F0F0039A4205D224498B6883
:1013FC0023F0F0031A438A60204B1B6803F00703A9
:10140C00AB420AD91D4A136823F007032B43136020
:10141C00136803F00703AB422ED1236813F0040FBB
:10142C0006D0174A936823F4E063E1680B4393609A
:10143C00236813F0080F07D0114A936823F4605304
:10144C00216943EAC1039360FFF7CEFB0C4B9B6809
:10145C00C3F303130B4AD35C03F01F03D8400A4BAE
:10146C0018600A4B1868FFF783F970BD01207047AC
:10147C000120FAE70120F8E70120F6E700200240FE
:10148C0000100240701D0008000000200800002021
:10149C0030B4036A23F001030362026A446883696F
:1014AC0023F4803323F073030D681D4322F00202F2
:1014BC008B681343144A904207D002F5A052904215
:1014CC0003D002F58062904205D123F00803CA686C
:1014DC001A4322F004030C4A904207D002F5A052A2
:1014EC00904203D002F58062904205D124F44074FE
:1014FC004A6922438C691443446085614A6842639B
:10150C00036230BC704700BF002C014030B4036A4A
:10151C0023F480730362036A4468C26922F4803244
:10152C0022F073020D68154323F400738A6843EAB2
:10153C000223104A904207D00F4A90420BD002F57A
:10154C00806290420FD106E023F40063CA6843EA3C
:10155C00022323F4806324F440544A6944EA0214BD
:10156C008A6944EA02144460C5614A68C263036232
:10157C0030BC7047002C01400040014030B4036A7D
:10158C0023F480530362026A4468C36923F08073B6
:10159C0023F4E6430D6843EA052322F400528D68D8
:1015AC0042EA05320B4DA84207D005F5A055A842DA
:1015BC0003D005F58065A84204D124F480444D691C
:1015CC0044EA85144460C3614B680364026230BC16
:1015DC00704700BF002C014030B4036A23F4803301
:1015EC000362036A4468426D22F4803222F0700276
:1015FC000D682A4323F400338D6843EA05430B4DF1
:10160C00A84207D005F5A055A84203D005F5806582
:10161C00A84204D124F480344D6944EA0524446082
:10162C0042654A688265036230BC7047002C0140F9
:10163C0030B4036A23F480130362026A4468436D76
:10164C0023F0807323F4E0430D6843EA052322F46E
:10165C0000128D6842EA05520B4DA84207D005F5E1
:10166C00A055A84203D005F58065A84204D124F406
:10167C0080244D6944EA8524446043654B68C36506
:10168C00026230BC704700BF002C014003681A4A4C
:10169C00904202D0B0F1804F03D123F070034A681E
:1016AC001343154A90420AD0B0F1804F07D002F58F
:1016BC00A052904203D002F58062904203D123F4F1
:1016CC004073CA68134323F080034A6913430360D1
:1016DC008B68C3620B688362074B984207D003F593
:1016EC00A053984203D003F58063984201D10B6953
:1016FC000363012343617047002C014060B310B5B4
:10170C00044690F83D3013B3022384F83D30214653
:10171C0051F8040BFFF7BAFF012384F8483084F822
:10172C003E3084F83F3084F8403084F8413084F8FF
:10173C00423084F8433084F8443084F8453084F8DF
:10174C00463084F8473084F83D30002010BD80F8D6
:10175C003C30FEF76BFFD7E70120704730B4036ACB
:10176C0023F010030362036A4468826922F08072DA
:10177C0022F4E6420D6842EA052223F020038D682C
:10178C0043EA0513104DA84207D0104DA8420BD0C8
:10179C0005F58065A8420FD106E023F08003CD68E3
:1017AC0043EA051323F0400324F440644D6944EAF2
:1017BC0085048D6944EA8504446082614A688263C9
:1017CC00036230BC704700BF002C01400040014058
:1017DC0038B590F83C30012B00F0958004460D464E
:1017EC00012380F83C30142A00F28880DFE802F0F4
:1017FC000B8686861F8686863486868648868686EF
:10180C005D86868671000068FFF742FE2268936948
:10181C0043F0080393612268936923F004039361F6
:10182C002268936929690B439361002067E0006883
:10183C00FFF794FF2268936943F400639361226875
:10184C00936923F48063936122689369296943EA5D
:10185C0001239361002052E00068FFF757FE2268D5
:10186C00D36943F00803D3612268D36923F00403DE
:10187C00D3612268D36929690B43D36100203EE010
:10188C000068FFF77BFE2268D36943F40063D361E1
:10189C002268D36923F48063D3612268D3692969F0
:1018AC0043EA0123D361002029E00068FFF794FE8E
:1018BC002268536D43F0080353652268536D23F07F
:1018CC00040353652268536D29690B43536500204B
:1018DC0015E00068FFF7ACFE2268536D43F400631B
:1018EC0053652268536D23F4806353652268536DEE
:1018FC00296943EA01235365002000E001200023FD
:10190C0084F83C3038BD0220FCE701F01F014FF099
:10191C00010C0CFA01FC036A23EA0C030362036A50
:10192C008A4013430362704710B5044610293BD814
:10193C00DFE801F0093A3A3A1E3A3A3A253A3A3A8D
:10194C002C3A3A3A330090F83E30DBB2013B18BFE8
:10195C000123002B79D1102965D8DFE801F02C6424
:10196C00646454646464586464645C6464646000B7
:10197C0090F83F30DBB2013B18BF0123E9E790F848
:10198C004030DBB2013B18BF0123E2E790F8413055
:10199C00DBB2013B18BF0123DBE790F84230DBB22E
:1019AC00013B18BF0123D4E790F84330DBB2013B75
:1019BC0018BF0123CDE7022384F83E3001222068B2
:1019CC00FFF7A3FF2368244A934207D002F5A052E5
:1019DC00934203D002F58062934203D15A6C42F4D5
:1019EC0000425A6423681C4A934220D0B3F1804FC2
:1019FC001DD002F5A052934219D01A6842F0010290
:101A0C001A60002022E0022384F83F30D6E702233C
:101A1C0084F84030D2E7022384F84130CEE7022329
:101A2C0084F84230CAE7022384F84330C6E7996849
:101A3C000A4A0A40062A0AD0B2F5803F09D01A6831
:101A4C0042F001021A60002000E0012010BD0020CD
:101A5C00FCE70020FAE700BF002C01400700010062
:101A6C0090F83C20012A2FD030B40346012280F894
:101A7C003C20022280F83D20006842688468134DA7
:101A8C00A8421CD022F070020D682A4342601A68EA
:101A9C000E48824206D0B2F1804F03D000F5A05020
:101AAC00824204D124F08004896821439160012290
:101ABC0083F83D20002083F83C0030BC704722F4B2
:101ACC0070024D682A43DDE702207047002C01406C
:101ADC0090F83C30012B3AD010B40246012380F828
:101AEC003C30CB6823F440738868034323F4806351
:101AFC004868034323F400630868034323F48053CA
:101B0C000869034323F400534869034323F48043D7
:101B1C00886A034323F47023886943EA00431068FE
:101B2C000C4CA04205D04364002082F83C0010BC51
:101B3C00704723F470034C6A43EA045323F0807318
:101B4C00CC69234323F00073096A0B43EBE70220B3
:101B5C00704700BF002C0140002301461A4618466E
:101B6C0000F092B8830730B547D0541E002A3ED0FF
:101B7C00CAB2034601E0013C39D303F8012B9D079F
:101B8C00F9D1032C2CD9CDB205EB05250F2C05EB87
:101B9C00054535D9A4F1100222F00F0C03F1100EFB
:101BAC00E6444FEA121C1A46156055609560D560E4
:101BBC0010327245F8D10CF1010214F00C0F03EB4A
:101BCC00021204F00F0C13D0ACF1040323F0030346
:101BDC000433134442F8045B9A42FBD10CF0030427
:101BEC002CB1C9B21C4403F8011B9C42FBD130BD83
:101BFC0064461346002CF4D1F9E703461446C0E7BB
:101C0C001A46A446E0E700BF70B50F4B0F4DAB4230
:101C1C00A3EB050607D0B610002455F8043B01349D
:101C2C009847A642F9D800F079F8094D094B5E1B8C
:101C3C00AB424FEAA60606D0002455F8043B01340B
:101C4C009847A642F9D870BD801D0008801D000879
:101C5C00801D0008881D000838B5074D074C2C1B4B
:101C6C00A41005D0013C55F8043D9847002CF9D13F
:101C7C00BDE8384000F058B88C1D0008881D0008DD
:101C8C00704700BF704700BF2DE9F8431B4D064657
:101C9C00286898460F469146FFF7F2FF184B1C68D0
:101CAC001CB3286865681F2D22DC4EB96B1C0235ED
:101CBC00636044F82570FFF7E5FF0020BDE8F8836A
:101CCC0004EB85010123C1F88890D4F88821AB403E
:101CDC001A43022EC4F88821C1F80881E6D1D4F841
:101CEC008C211A43C4F88C21E0E7064C1C60D8E721
:101CFC00FFF7C8FF4FF0FF30E0E700BF0C000020FB
:101D0C005C020020CC000020024B13B10248FFF70C
:101D1C0023BF704700000000651C0008F8B500BF29
:101D2C00F8BC08BC9E467047F8B500BFF8BC08BCB0
:041D3C009E46704708
:101D4000A0860100400D0300801A060000350C003B
:101D500040420F0080841E0000093D0000127A00FE
:101D60000024F40000366E010048E801006CDC023B
:101D7000000000000000000001020304060708093B
:081D8000151D0008B101000867
:041D88008D010008C1
:101D8C0000093D000100000010000000C800002008
:0400000508000729BF
:00000001FF
