:020000040800F2
:10000000000001203D17000855160008571600088B
:10001000591600085B1600085D1600080000000075
:100020000000000000000000000000005F16000853
:10003000611600080000000063160008651600083D
:100040008D1700088D1700088D1700088D17000800
:100050008D1700088D1700088D1700088D170008F0
:100060008D1700088D1700088D1700088D170008E0
:100070008D1700088D1700088D1700088D170008D0
:100080008D1700088D1700088D1700088D170008C0
:100090008D1700088D1700088D1700088D170008B0
:1000A0008D1700088D1700088D1700088D170008A0
:1000B0008D17000800000000000000008D170008E8
:1000C0008D17000800000000000000008D170008D8
:1000D000000000008D1700088D17000800000000C8
:1000E0008D1700088D1700080000000000000000B8
:1000F0000000000000000000000000000000000000
:100100000000000000000000000000008D17000843
:1001100000000000000000006D1600088D170008A8
:100120008D1700088D1700088D1700088D1700081F
:100130008D17000800000000000000000000000013
:100140008D1700088D1700088D1700088D170008FF
:100150008D1700088D1700088D1700088D170008EF
:100160008D1700088D1700088D170008000000008B
:100170008D1700088D170008000000000000000027
:0C0180008D1700088D1700088D1700086F
:1001C00081F0004102E000BF83F0004330B54FEA08
:1001D00041044FEA430594EA050F08BF90EA020F75
:1001E0001FBF54EA000C55EA020C7FEA645C7FEA08
:1001F000655C00F0E2804FEA5454D4EB5555B8BF2B
:100200006D420CDD2C4480EA020281EA030382EA9B
:10021000000083EA010180EA020281EA0303362D2D
:1002200088BF30BD11F0004F4FEA01314FF4801C00
:100230004CEA113102D0404261EB410113F0004F12
:100240004FEA03334CEA133302D0524263EB4303C9
:1002500094EA050F00F0A780A4F10104D5F1200E67
:100260000DDB02FA0EFC22FA05F2801841F10001C2
:1002700003FA0EF2801843FA05F359410EE0A5F196
:1002800020050EF1200E012A03FA0EFC28BF4CF0C7
:10029000020C43FA05F3C01851EBE37101F000457D
:1002A00007D54FF0000EDCF1000C7EEB00006EEB8A
:1002B0000101B1F5801F1BD3B1F5001F0CD3490814
:1002C0005FEA30004FEA3C0C04F101044FEA44526B
:1002D00012F5800F80F09A80BCF1004F08BF5FEAF2
:1002E000500C50F1000041EB045141EA050130BDD2
:1002F0005FEA4C0C404141EB0101013C28BFB1F5E4
:10030000801FE9D291F0000F04BF01460020B1FA2E
:1003100081F308BF2033A3F10B03B3F120020CDA01
:100320000C3208DD02F1140CC2F10C0201FA0CF0DF
:1003300021FA02F10CE002F11402D8BFC2F1200C44
:1003400001FA02F120FA0CFCDCBF41EA0C019040FA
:10035000E41AA2BF01EB0451294330BD6FEA040443
:100360001F3C1CDA0C340EDC04F11404C4F120022E
:1003700020FA04F001FA02F340EA030021FA04F340
:1003800045EA030130BDC4F10C04C4F1200220FA97
:1003900002F001FA04F340EA0300294630BD21FAD5
:1003A00004F0294630BD94F0000F83F4801306BF9B
:1003B00081F480110134013D4EE77FEA645C18BF8F
:1003C0007FEA655C29D094EA050F08BF90EA020F26
:1003D00005D054EA000C04BF1946104630BD91EA1E
:1003E000030F1EBF0021002030BD5FEA545C05D121
:1003F0004000494128BF41F0004130BD14F5800460
:100400003CBF01F5801130BD01F0004545F0FE41D3
:1004100041F470014FF0000030BD7FEA645C1ABF08
:10042000194610467FEA655C1CBF0B46024650EA3F
:10043000013406BF52EA033591EA030F41F400216B
:1004400030BD00BF90F0000F04BF0021704730B5F1
:100450004FF4806404F132044FF000054FF00001C6
:1004600050E700BF90F0000F04BF0021704730B587
:100470004FF4806404F1320410F0004548BF40425C
:100480004FF000013EE700BF42004FEAE2014FEAB1
:1004900031014FEA02701FBF12F07F4393F07F4F8C
:1004A00081F06051704732F07F4208BF704793F08F
:1004B0007F4F04BF41F40021704730B54FF46074A2
:1004C00001F0004521F000411CE700BF50EA0102A5
:1004D00008BF704730B54FF000050AE050EA01024E
:1004E00008BF704730B511F0004502D5404261EBBE
:1004F00041014FF4806404F132045FEA915C3FF4FF
:10050000D8AE4FF003025FEADC0C18BF03325FEA9B
:10051000DC0C18BF033202EBDC02C2F1200300FA4C
:1005200003FC20FA02F001FA03FE40EA0E0021FA71
:1005300002F11444BDE600BF70B54FF0FF0C4CF45F
:10054000E06C1CEA11541DBF1CEA135594EA0C0F11
:1005500095EA0C0F00F0DEF82C4481EA030621EA4C
:100560004C5123EA4C5350EA013518BF52EA033587
:1005700041F4801143F4801338D0A0FB02CE4FF039
:100580000005E1FB02E506F00042E0FB03E54FF069
:100590000006E1FB03569CF0000F18BF4EF0010E61
:1005A000A4F1FF04B6F5007F64F5407404D25FEA5D
:1005B0004E0E6D4146EB060642EAC62141EA555110
:1005C0004FEAC52040EA5E504FEACE2EB4F1FD0C52
:1005D00088BFBCF5E06F1ED8BEF1004F08BF5FEAD0
:1005E000500E50F1000041EB045170BD06F0004682
:1005F00046EA010140EA020081EA0301B4EB5C042F
:10060000C2BFD4EB0C0541EA045170BD41F4801126
:100610004FF0000E013C00F3AB8014F1360FDEBF4B
:10062000002001F0004170BDC4F10004203C35DA27
:100630000C341BDC04F11404C4F1200500FA05F3AA
:1006400020FA04F001FA05F240EA020001F000424B
:1006500021F0004110EBD37021FA04F642EB0601C1
:100660005EEA430E08BF20EAD37070BDC4F10C04EB
:10067000C4F1200500FA04F320FA05F001FA04F2AF
:1006800040EA020001F0004110EBD37041F100019B
:100690005EEA430E08BF20EAD37070BDC4F12005A6
:1006A00000FA05F24EEA020E20FA04F301FA05F20E
:1006B00043EA020321FA04F001F0004121FA04F2B6
:1006C00020EA020000EBD3705EEA430E08BF20EA86
:1006D000D37070BD94F0000F0FD101F000464000C0
:1006E00041EB010111F4801F08BF013CF7D041EA42
:1006F000060195F0000F18BF704703F00046520046
:1007000043EB030313F4801F08BF013DF7D043EA16
:100710000603704794EA0C0F0CEA135518BF95EACC
:100720000C0F0CD050EA410618BF52EA4306D1D153
:1007300081EA030101F000414FF0000070BD50EA72
:10074000410606BF1046194652EA430619D094EAFC
:100750000C0F02D150EA013613D195EA0C0F05D1E6
:1007600052EA03361CBF104619460AD181EA03013A
:1007700001F0004141F0FE4141F470014FF00000F2
:1007800070BD41F0FE4141F4780170BD70B54FF08D
:10079000FF0C4CF4E06C1CEA11541DBF1CEA13550D
:1007A00094EA0C0F95EA0C0F00F0A7F8A4EB0504EF
:1007B00081EA030E52EA03354FEA013100F08880E6
:1007C0004FEA03334FF0805545EA131343EA1263AF
:1007D0004FEA022245EA111545EA10654FEA002664
:1007E0000EF000419D4208BF964244F1FD0404F51D
:1007F000407402D25B084FEA3202B61A65EB030579
:100800005B084FEA32024FF480104FF4002CB6EB35
:10081000020E75EB030E22BFB61A754640EA0C00B5
:100820005B084FEA3202B6EB020E75EB030E22BFF5
:10083000B61A754640EA5C005B084FEA3202B6EB36
:10084000020E75EB030E22BFB61A754640EA9C00F5
:100850005B084FEA3202B6EB020E75EB030E22BFC5
:10086000B61A754640EADC0055EA060E18D04FEA83
:10087000051545EA16754FEA06164FEAC30343EA23
:1008800052734FEAC2025FEA1C1CC0D111F4801FF0
:100890000BD141EA00014FF000004FF0004CB6E7E9
:1008A00011F4801F04BF01430020B4F1FD0C88BF88
:1008B000BCF5E06F3FF6AFAEB5EB030C04BFB6EB93
:1008C000020C5FEA500C50F1000041EB045170BD86
:1008D0000EF0004E4EEA113114EB5C04C2BFD4EBB3
:1008E0000C0541EA045170BD41F480114FF0000E37
:1008F000013C90E645EA060E8DE60CEA135594EAB3
:100900000C0F08BF95EA0C0F3FF43BAF94EA0C0FB5
:100910000AD150EA01347FF434AF95EA0C0F7FF42A
:1009200025AF104619462CE795EA0C0F06D152EA7E
:1009300003353FF4FDAE1046194622E750EA410662
:1009400018BF52EA43067FF4C5AE50EA41047FF473
:100950000DAF52EA43057FF4EBAE12E74A0011D225
:1009600012F5001211D20DD56FF47873B3EB625209
:100970000ED44FEAC12343F0004343EA505323FA15
:1009800002F070474FF00000704750EA013002D18A
:100990004FF0FF3070474FF00000704753B94AB92D
:1009A000002908BF00281CBF4FF0FF314FF0FF3077
:1009B00000F00CB8ADF1080C6DE904CE03F068FC52
:1009C000DDF804E0DDE9022304B07047704700BFA2
:1009D00001F0FF01102A2BDB10F0070F08D010F8F0
:1009E000013B013A8B422DD010F0070F42B3F6D1F4
:1009F000F0B441EA012141EA014122F007047FF00D
:100A000000070023F0E80256083C85EA010586EA63
:100A1000010685FA47F5A3FA87F586FA47F6A5FA9F
:100A200087F68EB9EED1F0BC01F0FF0102F00702AB
:100A300032B110F8013B013A83EA010313B1F8D156
:100A40000020704701387047002D06BF3546033837
:100A5000073815F0010F07D1013015F4807F02BF70
:100A6000013015F4C03F0130F0BC0138704700BFC1
:100A7000844641EA000313F003036DD1403A41D3A9
:100A800051F8043B40F8043B51F8043B40F8043B68
:100A900051F8043B40F8043B51F8043B40F8043B58
:100AA00051F8043B40F8043B51F8043B40F8043B48
:100AB00051F8043B40F8043B51F8043B40F8043B38
:100AC00051F8043B40F8043B51F8043B40F8043B28
:100AD00051F8043B40F8043B51F8043B40F8043B18
:100AE00051F8043B40F8043B51F8043B40F8043B08
:100AF00051F8043B40F8043B51F8043B40F8043BF8
:100B0000403ABDD2303211D351F8043B40F8043B97
:100B100051F8043B40F8043B51F8043B40F8043BD7
:100B200051F8043B40F8043B103AEDD20C3205D3A7
:100B300051F8043B40F8043B043AF9D2043208D09F
:100B4000D2071CBF11F8013B00F8013B01D30B8811
:100B500003806046704700BF082A13D38B078DD0EF
:100B600010F003038AD0C3F10403D21ADB071CBFC1
:100B700011F8013B00F8013B80D331F8023B20F82B
:100B8000023B7BE7043AD9D3013A11F8013B00F864
:100B9000013BF9D20B7803704B7843708B788370EC
:100BA00060467047000000000000000000000000E8
:100BB0000000000000000000000000000000000035
:100BC00030B490F800F020F007016FF0000C10F046
:100BD000070491F820F040F048804FF000046FF0D7
:100BE0000700D1E9002391F840F000F1080082FAF3
:100BF0004CF2A4FA8CF283FA4CF3A2FA8CF34BBBBE
:100C0000D1E9022382FA4CF200F10800A4FA8CF236
:100C100083FA4CF3A2FA8CF3E3B9D1E9042382FA04
:100C20004CF200F10800A4FA8CF283FA4CF3A2FA19
:100C30008CF37BB9D1E9062301F1200182FA4CF251
:100C400000F10800A4FA8CF283FA4CF3A2FA8CF3B8
:100C5000002BC6D0002A04BF04301A4612BAB2FADA
:100C600082F200EBD20030BC7047D1E9002304F0DF
:100C70000305C4F100004FEAC50514F0040F91F814
:100C800040F00CFA05F562EA05021CBF63EA0503B1
:100C900062464FF00004AAE74FF0FF3C06E000BFB9
:100CA0004FF0010C02E000BF4FF0010C4DF804CDF5
:100CB0004FEA410C7FEA6C5C4FEA430C18BF7FEAB5
:100CC0006C5C1BD001B050EA410C0CBF52EA430CE3
:100CD00091EA030F02BF90EA020F0020704710F163
:100CE000000F91EA030F58BF994208BF90422CBFF2
:100CF000D8176FEAE37040F0010070474FEA410CEB
:100D00007FEA6C5C02D150EA013C07D14FEA430C08
:100D10007FEA6C5CD6D152EA033CD3D05DF8040B79
:100D2000704700BF8446104662468C4619466346AB
:100D300000E000BF01B5FFF7B7FF002848BF10F182
:100D4000000F01BD4DF808EDFFF7F4FF0CBF0120C7
:100D500000205DF808FB00BF4DF808EDFFF7EAFF43
:100D600034BF012000205DF808FB00BF4DF808EDFE
:100D7000FFF7E0FF94BF012000205DF808FB00BFF3
:100D80004DF808EDFFF7CEFF94BF012000205DF87D
:100D900008FB00BF4DF808EDFFF7C4FF34BF01208A
:100DA00000205DF808FB00BF4FEA410C7FEA6C5C55
:100DB00002D150EA013C0AD14FEA430C7FEA6C5C55
:100DC00002D152EA033C02D14FF0000070474FF0CD
:100DD000010070474FEA410212F5001215D211D5F9
:100DE0006FF47873B3EB625212D94FEAC12343F028
:100DF000004343EA505311F0004F23FA02F018BFAA
:100E0000404270474FF00000704750EA013005D172
:100E100011F0004008BF6FF0004070474FF0000035
:100E2000704700BF10B5054C237833B9044B13B19C
:100E30000448AFF300800123237010BDC4060020D6
:100E400000000000A8B5000808B5034B1BB103491A
:100E50000348AFF3008008BD00000000C806002072
:100E6000A8B5000870B506466023036000258560BC
:100E70000561C5608561456111E005EB450406EB40
:100E80008404226A3146E06902F058FC216AE06974
:100E900002F000FD216AE06902F0A8FD0135022D93
:100EA000EBDD70BD002314E0043A0C2A3ED8DFE8E5
:100EB00002F0073D3D3D223D3D3D2B3D3D3D340093
:100EC00003EB430200EB8202D1690968928C8A63CA
:100ED0000133022B33DC03EB430200EB8202126A84
:100EE000002AE1D103EB430200EB8202D1690968D9
:100EF000928C4A63ECE703EB430200EB8202D16978
:100F00000968928CCA63E3E703EB430200EB8202B9
:100F1000D1690968928C0A64DAE703EB430200EBBB
:100F20008202D1690968928C8A65D1E703EB43029A
:100F300000EB8202D1690968928CCA65C8E77047E4
:100F4000022900D9704708B502F57A7202EBD27215
:100F5000521001EB410100EB810102EB82028A8415
:100F6000FFF7A0FF08BD000038B504460D46D1E9E3
:100F7000000109F0BFF91CA3D3E90023FFF7DCFA55
:100F8000FFF7ECFC82B200212046FFF7D9FFD5E93C
:100F9000000109F0AFF914A3D3E90023FFF7CCFA5D
:100FA00013A3D3E90023FFF711F9FFF7D7FC82B2AF
:100FB00001212046FFF7C4FFD5E9000109F09AF9A5
:100FC00009A3D3E90023FFF7B7FA0BA3D3E9002362
:100FD000FFF7FCF8FFF7C2FC82B202212046FFF7C0
:100FE000AFFF38BDAFF300800000000000C07240CA
:100FF000F5B6ACD531C10040F5B6ACD531C1104025
:1010000010B588B0002403940494059406940794C2
:10101000124BDA6C42F00102DA64DA6C02F001027F
:101020000192019ADA6C42F00202DA64DB6C03F09E
:1010300002030293029B22461A214FF0904000F0D7
:101040005DFD1A230393012304930594069403A9D9
:101050004FF0904000F076FC08B010BD0010024048
:1010600000B583B001904FF0FF33012201A903487E
:1010700002F0A7FF012003B05DF804FB2C0700205D
:1010800010B586B0012202214FF0904000F036FDED
:10109000012210214FF0904000F030FD0122082184
:1010A0004FF0904000F02AFD214C2068FFF7DAF95C
:1010B0001DA3D3E90023FFF73FFA00221D4BFFF7E2
:1010C00065FBCDE9000100221B4BCDE902236946F7
:1010D0001A48FFF749FF002202214FF0904000F02C
:1010E0000DFD002208214FF0904000F007FD0A237B
:1010F000022205A9124801F073FF012202214FF0DC
:10110000904000F0FBFC9DF815209DF8143003F092
:10111000F00343EA02231B090A4A138023680133C0
:10112000236006B010BD00BF6F1283C0CA211940F2
:10113000E806002000408F400000F03FEC06002051
:1011400048080020E406002072B6FEE710B596B00D
:1011500000241394149415940C940D940E940F94ED
:101160001094119412942C22214601A803F034FB10
:101170003148324B03604460846041F28833C3607D
:1011800004614461846102F06FFA002848D10023B1
:1011900013931493159313A9274802F095FC002884
:1011A00040D160230C9364230D9300220E920823F8
:1011B0000F931092119212920CA91F4802F0BEFADE
:1011C000002831D100230D930F9304220CA91A4853
:1011D00002F0B4FA50BB08220CA9174802F0AEFA8C
:1011E00030BB4FF4006301934FF4806302930023FC
:1011F00003931422049205930693079308934FF0E8
:10120000007209920A934FF480430B9301A90A4894
:1012100002F092FC70B9084800F08EF916B010BDCB
:10122000FFF792FFFFF790FFFFF78EFFFFF78CFFAE
:10123000FFF78AFFFFF788FFFC070020002C014022
:1012400008B51048104B03604FF4827343600023CD
:1012500083604FF47062C2600222026143614FF406
:10126000007282612822C2610362436283620722A4
:10127000C26203630823436301F0D4FC00B908BDD4
:10128000FFF762FF48080020003C004008B50B480B
:101290000B4B03604FF4E133436000238360C36072
:1012A00003610C2242618361C3610362436202F005
:1012B000BEFF00B908BDFFF747FF00BF2C070020A5
:1012C0000044004000B585B00023019302930393CE
:1012D0000D480E4A02604122426083604FF47A72E8
:1012E000C260836102F090F950B900230193039327
:1012F00001A9054802F0E8FB20B905B05DF804FB40
:10130000FFF722FFFFF720FFB0070020001000408A
:1013100000B597B04422002105A803F05DFA002330
:10132000009301930293039304934FF4007000F031
:10133000F3FB20BB1023059301220B9200230C9397
:1013400060230D9302230F93109211922022129288
:10135000072213921493159305A800F0C7FC80B9D7
:101360000F2300930321019100230293039304931D
:10137000684600F0F1FF30B917B05DF804FBFFF7E5
:10138000E3FEFFF7E1FEFFF7DFFE000000B583B0EC
:1013900000F026FAFFF7BCFFFFF732FEFFF7D6FE9C
:1013A000FFF74EFFFFF772FFFFF78CFF1A481B4C49
:1013B000C4610025056284620423C3624463082378
:1013C0008363FFF74FFD23685D62012211463620DB
:1013D00000F090FA362000F09DFA114801F0D4FF99
:1013E00002E00A2000F01EFA0E4B198889B20E485E
:1013F00003F096F90A2301220DF107010B4802F0D0
:101400004CFE0028EDD19DF80730772BE9D1084A32
:10141000136801331360E4E7EC060020FC070020AA
:10142000B0070020E4060020C0B500082C0700200B
:10143000E006002082B00A4B1A6E42F001021A66E2
:101440001A6E02F001020092009A9A6D42F08052E8
:101450009A659B6D03F080530193019B02B0704726
:101460000010024000B589B0002303930493059354
:10147000069307930268134B9A4202D009B05DF8B5
:1014800004FB03F5EA339A6D42F400429A659A6DC3
:1014900002F400420192019ADA6C42F00202DA642C
:1014A000DB6C03F002030293029B382303930223B5
:1014B0000493032306930623079303A9024800F02D
:1014C00041FADBE7003C0040000400480268094B99
:1014D0009A4200D0704782B003F564431A6E42F41A
:1014E00000621A661B6E03F400630193019B02B055
:1014F000704700BF002C014002680E4B9A4200D09A
:10150000704700B583B003F500339A6D42F01002C6
:101510009A659B6D03F010030193019B0022114615
:10152000362000F0E7F9362000F0F4F903B05DF85A
:1015300004FB00BF0010004030B589B000230393C6
:1015400004930593069307930268184B9A4201D0BF
:1015500009B030BD03F56443DA6C42F00102DA648D
:10156000DA6C02F001020192019ADA6C42F0020296
:10157000DA64DB6C03F002030293029B4FF4F06326
:101580000393022504950124079403A94FF090408A
:1015900000F0D8F9032303930495002305930693E1
:1015A000079403A9024800F0CDF9D1E7002C0140CF
:1015B0000004004870B59CB00446002117911891B2
:1015C00019911A911B91542202A803F005F922687F
:1015D0001E4B9A4201D01CB070BD0223029302A898
:1015E00001F05EF800282ED1194B9A6D42F40032BA
:1015F0009A659A6D02F400320092009ADA6C42F019
:101600000102DA64DB6C03F001030193019B042304
:101610001793022618960025199503241A94072378
:101620001B9317A94FF0904000F08CF94FF4004342
:101630001793189619951A941B9417A94FF0904078
:1016400000F080F9C7E7FFF77FFDCDE700440040D9
:1016500000100240FEE7FEE7FEE7FEE7FEE7704708
:101660007047704708B500F0CBF808BD08B50248D0
:1016700001F0C4FE08BD00BFB00700200120704784
:1016800008B503F04FF9162303604FF0FF3008BD93
:1016900008B54FF0FF31FFF7F3FFFEE770B50C46DA
:1016A0001646002506E0AFF30080214601F8010B45
:1016B00001350C46B542F6DB304670BD70B50C46C0
:1016C0001646002504E014F8010BFFF7C9FC0135AC
:1016D000B542F8DB304670BD4FF0FF3070474FF435
:1016E00000534B6000207047012070470020704776
:1016F00010B503460C4A0D490D48006840B10C482E
:1017000000680344521A934206D8094A136010BD78
:101710000748084C0460F2E703F004F90C23036067
:101720004FF0FF30F3E700BF00000120000400008D
:10173000AC080020C80B002070470000DFF834D050
:10174000FFF7FAFF0C480D490D4A002302E0D45878
:10175000C4500433C4188C42F9D30A4A0A4C0023FB
:1017600001E013600432A242FBD303F0E1F8FFF77B
:101770000DFEFEE70000012000000020C40600204E
:101780008CBB0008C4060020C80B0020FEE7000048
:10179000104B1B780BB90120704710B504464FF46D
:1017A0007A70B0FBF3F30C4A1068B0FBF3F000F072
:1017B000B5F868B90F2C01D901200AE000222146B2
:1017C0004FF0FF3000F096F8044B1C60002000E062
:1017D000012010BD040000200000002008000020AF
:1017E00010B5032000F074F80F20FFF7D1FF10B1FF
:1017F0000124204610BD0446FFF71CFEF9E7000057
:10180000034B1B78034A11680B441360704700BFF9
:1018100004000020B0080020014B1868704700BF8A
:10182000B008002038B50446FFF7F6FF0546B4F1CE
:10183000FF3F02D0044B1B781C44FFF7EDFF401B19
:10184000A042FAD338BD00BF04000020002807DB07
:1018500000F01F02400901239340024A42F8203061
:10186000704700BF00E100E0002808DB0901C9B2B1
:1018700000F1604000F5614080F80013704700F00F
:101880000F000901C9B2014B1954704714ED00E073
:1018900000B500F00700C0F1070CBCF1040F28BF31
:1018A0004FF0040C031D062B0FD9C31E4FF0FF3E53
:1018B0000EFA0CF021EA000199400EFA03FE22EA2A
:1018C0000E0241EA02005DF804FB0023EEE700008F
:1018D000074AD36823F4E0631B041B0C000200F4E6
:1018E000E060034343F0BF6343F40033D3607047C9
:1018F00000ED00E010B50446054BD868C0F30220A7
:10190000FFF7C6FF01462046FFF7AEFF10BD00BF40
:1019100000ED00E008B5FFF799FF08BD0138B0F110
:10192000807F0BD24FF0E0235861054AF02182F806
:1019300023100020986107221A6170470120704728
:1019400000ED00E070B582B0002365E085685E00C0
:101950000324B44025EA0405CC68B4402C438460D9
:10196000456825EA0C054C68C4F300149C402C43E0
:10197000446062E0DD08083550F8254003F0070CAC
:101980004FEA8C0C4FF00F0E0EFA0CFE24EA0E0EEE
:101990000C6904FA0CF444EA0E0440F8254063E0B4
:1019A000022400E0002404FA0EF42C430CF1020C93
:1019B0004E4D45F82C404E4CA568D44325EA02060E
:1019C000D1F804C01CF4801F01D042EA0506484D3E
:1019D000AE60ED6804EA0506D1F804C01CF4001FEF
:1019E00001D042EA0506424DEE606D6804EA050644
:1019F000D1F804C01CF4003F01D042EA05063C4D7A
:101A00006E602D682C404E6816F4803F01D042EA8B
:101A10000504374A146001330A6832FA03F462D0CD
:101A20004FF0010C0CFA03FC1CEA0202F3D04C68E4
:101A300004F00304013C012C88D94C6804F0030431
:101A4000032C0CD0C4685D004FF0030C0CFA05FCAD
:101A500024EA0C0C8C68AC4044EA0C04C4604C686A
:101A600004F00304022C85D004684FEA430E4FF0C3
:101A7000030C0CFA0EFC24EA0C0C4C6804F0030472
:101A800004FA0EF444EA0C0404604C6814F4403F79
:101A9000C1D0184C256E45F001052566246E04F072
:101AA00001040194019C4FEA930C0CF102050F4CC8
:101AB00054F8255003F0030E4FEA8E0E0F2404FA5B
:101AC0000EF425EA0405B0F1904F3FF46BAF0A4CD9
:101AD000A04206D004F58064A0423FF461AF072421
:101AE00061E701245FE702B070BD00BF0000014064
:101AF0000004014000100240000400480AB1816166
:101B00007047816270470000024B186800F4C060A3
:101B1000704700BF00700040B0F5007F0FD01F4B32
:101B20001B6803F4C063B3F5806F34D01B4A13689D
:101B300023F4C06343F48063136000207047174BA5
:101B40001B6803F4C063B3F5007F20D0134A136809
:101B500023F4C06343F400731360114B1B683222FB
:101B600002FB03F30F4AA2FB03239B0C013300E0AB
:101B7000013B0A4A526912F4806F01D0002BF7D161
:101B8000064B5B6913F4806F03D10020704700207F
:101B90007047032070470020704700BF007000406E
:101BA0000000002083DE1B4330B583B00446204B89
:101BB0009B6D13F0805F0BD0FFF7A6FFB0F5007FA1
:101BC00017D0802C1FD82DD0702C2DD000211BE0D9
:101BD000174DAB6D43F08053AB65AB6D03F0805395
:101BE0000193019BFFF790FFAB6D23F08053AB6532
:101BF000E4E7802C03D9A02C03D9022104E00021C2
:101C000002E0012100E003210A4A136823F00703E0
:101C10000B431360136803F007038B4206D10020C7
:101C200003B030BD0221EFE70121EDE70120F7E726
:101C30000010024000200240284A9368D26802F057
:101C4000030213F00C030AD00C2B06D0042B1FD078
:101C5000082B20D00020024610E0012AF6D11F4AAE
:101C6000126812F0080F0CD11C4AD2F89420C2F36B
:101C700003221B4951F8222043B100200C2B0DD028
:101C80007047164A1268C2F30312F2E71046F5E7EE
:101C900014480022F2E714480022EFE70F4BDB68FC
:101CA00003F00303022B16D0032B00D10E4A0B497D
:101CB000CB68C3F302130133C868C0F3062002FBEC
:101CC00000F0B0FBF3F0CB68C3F3416301335B007A
:101CD000B0FBF3F0D4E7034AE9E700BF001002408D
:101CE000D4B500080024F40000127A00002800F0A7
:101CF0001C83F0B583B00446964B9D6805F00C0537
:101D0000DE6806F00306036813F0100F5AD0E5B141
:101D10000C2D18D0A369002B00F0BB808D4A1368EE
:101D200043F001031360FFF777FD0746894B1B68FB
:101D300013F0020F40F09A80FFF76EFDC01B0228DF
:101D4000F4D90320FCE2012EE4D1824B1B6813F08E
:101D5000020F03D0A369002B00F0E982206A7D4BBB
:101D60001B6813F0080F5BD07A4B1B6803F0F0037D
:101D700098425CD8774B1A6842F008021A601A68D9
:101D800022F0F002216A0A431A605A6822F47F4264
:101D9000E16942EA01225A60002D60D0FFF74CFF52
:101DA0006C4B9B68C3F303136B4AD35C03F01F03B4
:101DB000D8406A4B18606A4B1868FFF7E9FC0028A6
:101DC00040F0BE82236813F0010F00F08180082DDF
:101DD00075D00C2D71D06368B3F5803F00F097800B
:101DE000B3F5A02F00F099805A4B1A6822F4803284
:101DF0001A601A6822F480221A606368002B00F0CF
:101E00009980FFF709FD0746524B1B6813F4003F0A
:101E10005ED1FFF701FDC01B6428F5D903208FE2D6
:101E20004C4BD3F894301B0903F0F003A0E7FFF705
:101E3000BBFE002840F07D82464B1A6842F0080243
:101E40001A601A6822F0F002216A0A431A605A687E
:101E500022F47F42E16942EA01225A609EE7206A49
:101E6000FFF7A2FE002899D0012069E2394B1A68D9
:101E700042F008021A601A6822F0F002216A0A434E
:101E80001A605A6822F47F42E16942EA01225A60EC
:101E900098E7304A136823F001031360FFF7BCFC96
:101EA00007462C4B1B6813F0020F8BD0FFF7B4FCD6
:101EB000C01B0228F5D9032042E2032E8BD1254B0B
:101EC0001B6813F4003F03D06368002B00F03382DB
:101ED000236813F0020F58D0042D45D00C2D41D0AB
:101EE000E368002B77D01B4A136843F480731360B8
:101EF000FFF792FC0646174B1B6813F4806F61D105
:101F0000FFF78AFC801B0228F5D9032018E2114A4A
:101F1000136843F4803313606FE703F18043A3F544
:101F20003C331A6842F480221A601A6842F4803204
:101F30001A6062E7FFF770FC0746064B1B6813F454
:101F4000003FC5D0FFF768FCC01B6428F5D903200B
:101F5000F6E100BF001002400CB6000800000020AF
:101F600008000020022EBBD1A44B1B6813F4806F25
:101F700003D0E368002B00F0E081A04A536823F00F
:101F8000F853216943EA01635360236813F0080F93
:101F90004CD063699BB3994AD2F8943043F0010363
:101FA000C2F89430FFF738FC0646944BD3F89430CF
:101FB00013F0020F3AD1FFF72FFC801B0228F4D94F
:101FC0000320BDE18D4A536823F0F853216943EAA9
:101FD00001635360D9E7894A136823F4807313605F
:101FE000FFF71AFC0646854B1B6813F4806FCCD0B4
:101FF000FFF712FC801B0228F5D90320A0E17F4ADD
:10200000D2F8943023F00103C2F89430FFF704FCB7
:1020100006467A4BD3F8943013F0020F06D0FFF740
:10202000FBFB801B0228F4D9032089E1236813F00D
:10203000040F7AD0714B9B6D13F0805F36D16F4BDC
:102040009A6D42F080529A659B6D03F08053019324
:10205000019B01266A4B1B6813F4807F28D0A3687C
:10206000012B39D0052B3FD0644BD3F8902022F0C0
:102070000102C3F89020D3F8902022F00402C3F8A4
:102080009020A368002B3DD0FFF7C6FB07465B4BB3
:10209000D3F8903013F0020F46D1FFF7BDFBC01B01
:1020A00041F288339842F2D9032049E10026D1E772
:1020B000534A136843F480731360FFF7ADFB074680
:1020C0004F4B1B6813F4807FC9D1FFF7A5FBC01BE2
:1020D0000228F5D9032033E1484AD2F8903043F082
:1020E0000103C2F89030CCE7444BD3F8902042F083
:1020F0000402C3F89020D3F8902042F00102C3F804
:102100009020BEE7FFF788FB07463C4BD3F89030A2
:1021100013F0020F08D0FFF77FFBC01B41F288339A
:102120009842F2D903200BE1E6B9236813F0200F9F
:1021300035D0636AE3B1314AD2F8983043F00103F5
:10214000C2F89830FFF768FB06462C4BD3F898305E
:1021500013F0020F23D1FFF75FFB801B0228F4D995
:102160000320EDE0254A936D23F080539365DCE76F
:10217000224AD2F8983023F00103C2F89830FFF7D2
:102180004BFB06461D4BD3F8983013F0020F06D0D8
:10219000FFF742FB801B0228F4D90320D0E0A36A9A
:1021A000002B00F0CC80022B17D00C2D00F0CC803F
:1021B000124A136823F080731360FFF72DFB044667
:1021C0000E4B1B6813F0007F00F0A880FFF724FB84
:1021D000001B0228F4D90320B2E0084BDB6803F0AF
:1021E0000301E26A91420DD00C2D00F0AB80034B4D
:1021F0001B6813F0806F2FD00120A1E00010024077
:102200000070004003F07002216B0139B2EB011F36
:10221000EAD103F4FE42616BB2EB012FE4D103F08B
:102220007842A16BB2EBC16FDED103F4C001E26B67
:102230005208013AB1EB425FD6D103F0C063226C81
:102240005208013AB3EB426FCED1404B1B6813F0FA
:10225000007F49D0002073E03C4A136823F080736C
:102260001360FFF7D9FA0546384B1B6813F0007F5F
:1022700006D0FFF7D1FA401B0228F5D903205FE012
:10228000324AD36832491940E36A206B013843EA85
:102290000013606B43EA0023E06B4008013843EA17
:1022A0004053206C4008013843EA4063A06B43EA86
:1022B000C0631943D160136843F080731360D3681F
:1022C00043F08073D360FFF7A7FA04461F4B1B68E7
:1022D00013F0007F06D1FFF79FFA001B0228F5D903
:1022E00003202DE000202BE0184B1A6842F080728A
:1022F0001A60DA6842F08072DA60FFF78DFA0446FD
:10230000124B1B6813F0007F06D1FFF785FA031B01
:10231000022BF5D9032013E0002011E00B4AD1680D
:102320000C4B0B40D36000200AE0012070470120D5
:1023300006E0012004E0012002E0012000E000208E
:1023400003B0F0BD0120FBE70120F9E700100240D7
:102350008C809D01FCFFEEFE002800F0AF8070B580
:102360000D460446594B1B6803F007038B420BD202
:10237000564A136823F007030B431360136803F0F6
:1023800007038B4240F09C80236813F0020F0CD0AF
:10239000A2684F4B9B6803F0F0039A4205D94C4961
:1023A0008B6823F0F0031A438A60236813F0010F4F
:1023B00039D06368032B09D0022B26D063BB444A73
:1023C000126812F0020F06D1012076E0404A12682E
:1023D00012F0007F76D03E498A6822F00302134350
:1023E0008B60FFF719FA0646394B9B6803F00C0324
:1023F0006268B3EB820F16D0FFF70EFA801B41F232
:1024000088339842F0D9032057E0314A126812F419
:10241000003FE0D1012050E02D4A126812F4806F95
:10242000D9D1012049E0236813F0020F0CD0A26833
:10243000274B9B6803F0F0039A4205D224498B682E
:1024400023F0F0031A438A60204B1B6803F0070354
:10245000AB420AD91D4A136823F007032B431360CC
:10246000136803F00703AB422ED1236813F0040F67
:1024700006D0174A936823F4E063E1680B43936046
:10248000236813F0080F07D0114A936823F46053B0
:10249000216943EAC1039360FFF7CEFB0C4B9B68B5
:1024A000C3F303130B4AD35C03F01F03D8400A4B5A
:1024B00018600A4B1868FFF76BF970BD0120704770
:1024C0000120FAE70120F8E70120F6E700200240AA
:1024D000001002400CB60008000000200800002098
:1024E000014B1868704700BF0000002008B5FFF7D7
:1024F000F7FF054B9B68C3F30223044AD35C03F048
:102500001F03D84008BD00BF0010024004B60008F9
:1025100008B5FFF7E5FF054B9B68C3F3C223044AE8
:10252000D35C03F01F03D84008BD00BF0010024079
:1025300004B60008F8B504460D46584BDB6813F0A6
:10254000030F17D0554BDB6803F003030268934277
:1025500001D0012616E0002A00F09E804F4BDB6878
:10256000C3F3021301334268934201D0012609E00C
:1025700000261BE00368022B57D0032B5CD0012BF5
:1025800002D001263046F8BD444A126812F0020F0C
:102590005ED04248C26822F073026168013943EAA2
:1025A00001131343C3600026002EEBD13B4A13688E
:1025B00023F080631360FFF72FF90746374B1B6842
:1025C00013F0006F05D0FFF727F9C31B022BF5D9D5
:1025D0000326002ED6D1002D3CD130490B6923F0C3
:1025E000784323F4FE43A068E268D20642EA002260
:1025F00013430B61294A136843F080631360FFF7AC
:102600000BF90546254B1B6813F0006F05D1FFF74A
:1026100003F9401B0228F5D90326002EB2D11F4A28
:102620001369A1690B431361ACE71C4A126812F4E9
:10263000806FAED10126A5E7184A126812F4003F58
:10264000A7D1164A126812F4802FA2D1012699E769
:102650000126A9E7012D0FD01048026922F0C062BF
:1026600022F4FE42A16863695B08013B5B0643EA12
:1026700001231A430261BDE70848026922F4C0023F
:1026800022F4FE42A16823695B08013B5B0543EA33
:1026900001231A430261ADE7012673E700100240EF
:1026A0002DE9F04182B00446036813F4006F25D091
:1026B000C36BB3F5000F06D0B3F5400F12D04BB18A
:1026C000012637461CE0AE4AD36843F48033D3601A
:1026D000002708E000210430FFF72CFF074610B167
:1026E00006460DE00027A64AD2F8883023F44003BE
:1026F000E16B0B43C2F88830002601E00026374624
:10270000236813F4003F6BD09D4B9B6D13F0805FEB
:102710004CD19B4B9A6D42F080529A659B6D03F0B1
:1027200080530193019B4FF00108964A136843F4CC
:1027300080731360FFF770F80546924B1B6813F423
:10274000807F05D1FFF768F8401B0228F5D90327E1
:10275000002F40D18A4BD3F8903013F4407315D03A
:10276000226D9A4212D0864AD2F8903023F44073F8
:10277000D2F8901041F48031C2F89010D2F8901045
:1027800021F48031C2F89010C2F8903013F0010F9C
:102790000FD1002F40F0C980794AD2F8903023F44D
:1027A0004073216D0B43C2F8903015E04FF00008E4
:1027B000BBE7FFF731F80546714BD3F8903013F0C3
:1027C000020FE6D1FFF728F8401B41F28833984208
:1027D000F2D90327DDE73E46B8F1000F40F0A780AD
:1027E000236813F0010F08D0654AD2F8883023F02F
:1027F0000303216A0B43C2F88830236813F0020FE9
:1028000008D05F4AD2F8883023F00C03616A0B438A
:10281000C2F88830236813F0200F08D0584AD2F845
:10282000883023F44063A16A0B43C2F888302368E0
:1028300013F4007F08D0524AD2F8883023F44023A2
:10284000616B0B43C2F88830236813F4806F08D0A3
:102850004B4AD2F8883023F44013A16B0B43C2F8E3
:102860008830236813F0400F08D0454AD2F88830EA
:1028700023F44053E16A0B43C2F88830236813F411
:10288000807F08D03E4AD2F8883023F44033216B51
:102890000B43C2F88830236813F4005F0FD0384A26
:1028A000D2F8883023F04063216C0B43C2F88830A3
:1028B000236CB3F1006F40D0B3F1806F42D0236836
:1028C00013F4802F0FD02E4AD2F8883023F04063C3
:1028D000616C0B43C2F88830636CB3F1006F39D080
:1028E000B3F1806F3BD0236813F4804F0CD0244A9F
:1028F000D2F8883023F04053A16C0B43C2F88830E3
:10290000A36CB3F1805F32D0236813F4004F08D07A
:102910001B4AD2F8883023F08043E16C0B43C2F8A5
:102920008830304602B0BDE8F0813E4654E7144A94
:10293000936D23F08053936552E7D36843F480137B
:10294000D360BCE70121201DFFF7F4FD0028B6D0BD
:102950000646B4E7D36843F48013D360C3E701218C
:10296000201DFFF7E7FD0028BDD00646BBE702218A
:10297000201DFFF7DFFD0028C6D00646C4E700BFD4
:1029800000100240007000402DE9F04782B005467B
:10299000884617461E46FEF73FFF0A9B1B1A03EBAD
:1029A0000609FEF739FF8246284B1B68C3F3CB3379
:1029B00009FB03F301932B689C6838EA04040CBFFD
:1029C00001230023BB423DD0B6F1FF3FF3D0FEF719
:1029D00023FFA0EB0A00484507D2019A02B14A46FC
:1029E000019B013B01939146E5E72A68536823F078
:1029F000E00353606B68B3F5827F0BD0AB6AB3F52D
:102A0000005F14D0012385F85D30002385F85C3029
:102A1000032018E0AB68B3F5004F02D0B3F5806F28
:102A2000ECD12A68136823F040031360E6E72A68B4
:102A3000136823F4005313602A68136843F40053A7
:102A40001360DFE7002002B0BDE8F087000000203F
:102A50002DE9F04782B006460C4615461F46002376
:102A60008DF80330FEF7D8FE0A9B1B1A03EB07080C
:102A7000FEF7D2FE8146D6F800A0304B1B6803EB70
:102A80008303C3EBC3031B0D08FB03F3019302E0B5
:102A9000B7F1FF3F12D133689B6803EA040CAC45E1
:102AA00047D0B4F5C06FF3D1002DF1D19AF80C30B6
:102AB000DBB28DF803309DF80330E9E7FEF7ACFE9A
:102AC000A0EB0900404507D2019A02B14246019BA2
:102AD000013B01939046DEE73268536823F0E00340
:102AE00053607368B3F5827F0BD0B36AB3F5005FB0
:102AF00014D0012386F85D30002386F85C30032073
:102B000018E0B368B3F5004F02D0B3F5806FECD195
:102B10003268136823F040031360E6E732681368F5
:102B200023F4005313603268136843F400531360B6
:102B3000DFE7002002B0BDE8F08700BF0000002002
:102B400070B582B004460D46164600920B46002230
:102B50004FF4C051FFF77CFFB0B900962B4600221E
:102B600080212046FFF710FFA8B900962B460022CF
:102B70004FF4C0612046FFF76BFF50B1236E43F066
:102B800020032366032004E0236E43F02003236622
:102B9000032002B070BD236E43F0200323660320A0
:102BA000F7E770B582B004460D4616464368B3F5A4
:102BB000827F0DD000962B46002280212046FFF711
:102BC000E3FE90B96368B3F5827F14D002B070BDA4
:102BD0008368B3F5004F02D0B3F5806FEAD1226865
:102BE000136823F040031360E4E7236E43F02003EF
:102BF00023660320EAE7A368B3F5004F02D0B3F5DC
:102C0000806FE3D100962B4600224FF4C06120462E
:102C1000FFF71EFF0028D9D0236E43F02003236660
:102C20000320D3E700286AD010B50446436A33B9BD
:102C30004368B3F5827F05D00023C36102E000231F
:102C4000036143610023A36294F85D30002B4DD0F3
:102C5000022384F85D302268136823F04003136078
:102C6000E368B3F5E06F47D90022B3F5706F04D085
:102C7000B3F5E06F01D00023A362636803F48273AD
:102C8000A16801F404410B43216901F002010B43E7
:102C9000616901F001010B43A16901F400710B436B
:102CA000E16901F038010B43216A01F080010B4317
:102CB000A16A01F4005120680B430360638B03F0A9
:102CC0000403616A01F010010B43616B01F008011C
:102CD0000B43E16801F470610B4321681A434A60B9
:102CE00000202066012384F85D3010BD84F85C303C
:102CF0002046FEF7B7FBABE74FF48052B5E7012063
:102D000070472DE9F8431F46089D90F85C30012B71
:102D100000F06481044688469146012380F85C30C7
:102D2000FEF77AFD064694F85D30DBB26268012B4F
:102D30000AD0B2F5827F40F03881A268002A40F0C4
:102D40003D81042B40F03C81B8F1000F00F03A8146
:102D5000B9F1000F00F03881002F00F0378194F8AE
:102D60005D30DBB2042B02D0052384F85D300023F4
:102D70002366C4F84090A4F84670A4F84470C4F8E0
:102D80003880E787A787E3642365E368B3F5E06FDE
:102D900001D8012F23D92268536823F4805353604C
:102DA00023681A6812F0400F03D11A6842F04002FB
:102DB0001A60E368B3F5E06F58D963680BB1012F6F
:102DC0000BD1A26B23681288DA60A36B0233A36372
:102DD000E38F9BB2013B9BB2E387012731E022687E
:102DE000536843F480535360DAE7A26B1288DA60C9
:102DF000A36B0233A363E38F9BB2013B9BB2E387D8
:102E0000002723689A6812F0010F11D0B4F8462009
:102E100092B26AB1DA68236C1A80236C023323649D
:102E2000B4F846309BB2013B9BB2A4F84630012770
:102E3000FEF7F2FC831BAB4203D3B5F1FF3F40F03A
:102E4000C780E38F9BB22BB9B4F846309BB2002BFE
:102E500000F0A18023689A6812F0020FD1D0E28FAF
:102E600092B2002ACDD0002FCBD0BEE763680BB161
:102E7000012F0FD1E38F9BB2012B0DD9A26B2368D9
:102E80001288DA60A36B0233A363E38F9BB2023B29
:102E90009BB2E387012749E0A26B236812781A737B
:102EA000A36B0133A363E38F9BB2013B9BB2E38728
:102EB000F0E7E28F92B2012A0CD9A26B1288DA6095
:102EC000A36B0233A363E38F9BB2023B9BB2E38706
:102ED00000273DE0A26B12781A73A36B0133A36342
:102EE000E38F9BB2013B9BB2E387002730E022686F
:102EF000536843F48053536001270DE0226C1B7B21
:102F00001370236C01332364B4F846309BB2013B49
:102F10009BB2A4F846300127FEF77EFC801BA84236
:102F200002D3B5F1FF3F55D1002D55D0E38F9BB2B1
:102F300023B9B4F846309BB2002B2CD023689A6892
:102F400012F0020F04D0E28F92B20AB1002FB0D17A
:102F500023689A6812F0010FDED0B4F8462092B2CE
:102F6000002AD9D0B4F8462092B2012AC6D9DA682C
:102F7000236C1A80236C02332364B4F846309BB26E
:102F8000023B9BB2A4F84630B4F846309BB2012B0A
:102F9000ADD90127C0E7324629462046FFF7D0FDCC
:102FA00020B120232366012000E00220012384F8C1
:102FB0005D30002384F85C30BDE8F8830220F5E73B
:102FC0000220F3E70120F1E70120EFE70120EDE720
:102FD0000320EBE70320E9E70320E7E70220EBE724
:102FE0002DE9F04383B00446884691461D4640686B
:102FF000B0F5827F43D094F85C30012B00F0C380A1
:10300000012384F85C30FEF707FC074694F85D6006
:10301000F6B2012E40F0A480B8F1000F00F0A180BC
:10302000B9F1000F00F09D80042384F85D30002387
:103030002366C4F84080A4F84490A4F84690A363A3
:10304000A387E387E3642365E368B3F5E06F24D9DE
:103050002268536823F480535360A368B3F5004F8C
:1030600021D023681A6812F0400F03D11A6842F089
:1030700040021A60E368B3F5E06F29D94AE0A3681B
:10308000002BB8D1042384F85D30009513460A461E
:103090002046FFF736FE064669E02268536843F48F
:1030A00080535360D9E72268136823F0400313600C
:1030B0002268136823F480431360D2E7FEF7ACFB69
:1030C000C01BA84202D3B5F1FF3F54D1002D54D00C
:1030D000B4F846309BB2002B36D023689A6812F0C1
:1030E000010FEBD0226C1B7B1370236C0133236424
:1030F000B4F846309BB2013B9BB2A4F84630E7E7F8
:10310000FEF78AFBC01BA84202D3B5F1FF3F36D1C0
:10311000002D36D0B4F846309BB2ABB123689A6824
:1031200012F0010FECD0DA68236C1A80236C0233A2
:103130002364B4F846C01FFA8CFC0CF1FF3C1FFA64
:103140008CFCA4F846C0E5E73A4629462046FFF73E
:1031500028FD08B120232366236E13B9002600E062
:103160000226012384F85D30002384F85C30304669
:1031700003B0BDE8F0830326F3E70326F1E7032657
:10318000EFE70326EDE70226F1E7000030B4036A1B
:1031900023F001030362026A4468836923F48033E5
:1031A00023F073030D681D4322F002028B68134362
:1031B000144A904207D002F5A052904203D002F583
:1031C0008062904205D123F00803CA681A4322F0B6
:1031D00004030C4A904207D002F5A052904203D05B
:1031E00002F58062904205D124F440744A6922437A
:1031F0008C691443446085614A684263036230BC51
:10320000704700BF002C014030B4036A23F4807380
:103210000362036A4468C26922F4803222F07302B6
:103220000D68154323F400738A6843EA0223104AA9
:10323000904207D00F4A90420BD002F58062904234
:103240000FD106E023F40063CA6843EA022323F4A3
:10325000806324F440544A6944EA02148A6944EAC7
:1032600002144460C5614A68C263036230BC70479F
:10327000002C01400040014030B4036A23F4805325
:103280000362026A4468C36923F0807323F4E6434F
:103290000D6843EA052322F400528D6842EA0532A4
:1032A0000B4DA84207D005F5A055A84203D005F55F
:1032B0008065A84204D124F480444D6944EA851411
:1032C0004460C3614B680364026230BC704700BF56
:1032D000002C014030B4036A23F480330362036A94
:1032E0004468426D22F4803222F070020D682A4355
:1032F00023F400338D6843EA05430B4DA84207D001
:1033000005F5A055A84203D005F58065A84204D173
:1033100024F480344D6944EA0524446042654A68D7
:103320008265036230BC7047002C014030B4036AF0
:1033300023F480130362026A4468436D23F08073B0
:1033400023F4E0430D6843EA052322F400128D685C
:1033500042EA05520B4DA84207D005F5A055A842F8
:1033600003D005F58065A84204D124F480244D697A
:1033700044EA8524446043654B68C365026230BCFF
:10338000704700BF002C014090F83D30DBB2012BAC
:1033900026D1022380F83D300268D36843F0010350
:1033A000D3600368114A93420CD0B3F1804F09D027
:1033B00002F5A052934205D01A6842F001021A6049
:1033C0000020704799680A4A0A40062A0AD0B2F5D6
:1033D000803F09D01A6842F001021A60002070474D
:1033E000012070470020704700207047002C0140EA
:1033F00007000100704770477047704710B50446DA
:1034000003681A6912F0020F11D0DA6812F0020F85
:103410000DD06FF002021A610123037703689B69E4
:1034200013F0030F79D0FFF7E6FF0023237723681B
:103430001A6912F0040F12D0DA6812F0040F0ED0DD
:103440006FF004021A610223237723689B6913F447
:10345000407F68D02046FFF7CEFF00232377236804
:103460001A6912F0080F12D0DA6812F0080F0ED0A5
:103470006FF008021A61042323772368DB6913F0D5
:10348000030F57D02046FFF7B6FF002323772368AA
:103490001A6912F0100F12D0DA6812F0100F0ED065
:1034A0006FF010021A61082323772368DB6913F495
:1034B000407F46D02046FFF79EFF002323772368F6
:1034C0001A6912F0010F03D0DA6812F0010F3FD130
:1034D00023681A6912F0800F03D0DA6812F0800FA7
:1034E0003DD123681A6912F4807F03D0DA6812F0A4
:1034F000800F3BD123681A6912F0400F03D0DA68BD
:1035000012F0400F39D123681A6912F0200F03D04E
:10351000DA6812F0200F37D110BDFFF76BFF20469D
:10352000FFF76AFF81E72046FFF764FF2046FFF7B9
:1035300063FF92E72046FFF75DFF2046FFF75CFF41
:10354000A3E72046FFF756FF2046FFF755FFB4E7F5
:103550006FF001021A612046FDF792FDB8E76FF0A7
:1035600080021A61204600F02CFBBAE76FF48072EB
:103570001A61204600F026FBBCE76FF040021A619A
:103580002046FFF73AFFBEE76FF020021A6120469F
:1035900000F016FBC0E7000003681A4A904202D010
:1035A000B0F1804F03D123F070034A681343154AEA
:1035B00090420AD0B0F1804F07D002F5A05290425D
:1035C00003D002F58062904203D123F44073CA68AD
:1035D000134323F080034A69134303608B68C3627B
:1035E0000B688362074B984207D003F5A0539842BB
:1035F00003D003F58063984201D10B690363012373
:1036000043617047002C014060B310B5044690F848
:103610003D3013B3022384F83D30214651F8040BAA
:10362000FFF7BAFF012384F8483084F83E3084F86D
:103630003F3084F8403084F8413084F8423084F8D8
:10364000433084F8443084F8453084F8463084F8B8
:10365000473084F83D30002010BD80F83C30FDF745
:103660004BFFD7E70120704760B310B5044690F8D0
:103670003D3013B3022384F83D30214651F8040B4A
:10368000FFF78AFF012384F8483084F83E3084F83D
:103690003F3084F8403084F8413084F8423084F878
:1036A000433084F8443084F8453084F8463084F858
:1036B000473084F83D30002010BD80F83C30FDF7E5
:1036C00005FFD7E70120704730B4036A23F01003E9
:1036D0000362036A4468826922F0807222F4E6423F
:1036E0000D6842EA052223F020038D6843EA0513A2
:1036F000104DA84207D0104DA8420BD005F58065AB
:10370000A8420FD106E023F08003CD6843EA0513F9
:1037100023F0400324F440644D6944EA85048D6934
:1037200044EA8504446082614A688263036230BC73
:10373000704700BF002C01400040014038B590F8B0
:103740003C30012B00F0958004460D46012380F8A3
:103750003C30142A00F28880DFE802F00B8686866F
:103760001F86868634868686488686865D86868619
:1037700071000068FFF70AFD2268936943F00803AF
:1037800093612268936923F004039361226893692B
:1037900029690B439361002067E00068FFF794FFFD
:1037A0002268936943F4006393612268936923F468
:1037B0008063936122689369296943EA01239361D5
:1037C000002052E00068FFF71FFD2268D36943F034
:1037D0000803D3612268D36923F00403D36122680C
:1037E000D36929690B43D36100203EE00068FFF7ED
:1037F00043FD2268D36943F40063D3612268D3692F
:1038000023F48063D3612268D369296943EA0123E1
:10381000D361002029E00068FFF75CFD2268536D4A
:1038200043F0080353652268536D23F00403536586
:103830002268536D29690B435365002015E0006829
:10384000FFF774FD2268536D43F4006353652268EB
:10385000536D23F4806353652268536D296943EAED
:1038600001235365002000E00120002384F83C3050
:1038700038BD0220FCE701F01F014FF0010C0CFAEB
:1038800001FC036A23EA0C030362036A8A401343C0
:103890000362704710B5044610293BD8DFE801F0F9
:1038A000093A3A3A1E3A3A3A253A3A3A2C3A3A3AE8
:1038B000330090F83E30DBB2013B18BF0123002BF0
:1038C00079D1102965D8DFE801F02C646464546470
:1038D0006464586464645C646464600090F83F30BD
:1038E000DBB2013B18BF0123E9E790F84030DBB2BF
:1038F000013B18BF0123E2E790F84130DBB2013B06
:1039000018BF0123DBE790F84230DBB2013B18BF60
:103910000123D4E790F84330DBB2013B18BF012309
:10392000CDE7022384F83E3001222068FFF7A3FF91
:103930002368244A934207D002F5A052934203D051
:1039400002F58062934203D15A6C42F400425A64F9
:1039500023681C4A934220D0B3F1804F1DD002F55A
:10396000A052934219D01A6842F001021A60002056
:1039700022E0022384F83F30D6E7022384F8403067
:10398000D2E7022384F84130CEE7022384F84230A4
:10399000CAE7022384F84330C6E799680A4A0A4016
:1039A000062A0AD0B2F5803F09D01A6842F0010217
:1039B0001A60002000E0012010BD0020FCE700207C
:1039C000FAE700BF002C01400700010001F01F01D1
:1039D0004FF0040C0CFA01FC036A23EA0C030362A7
:1039E000036A8A40134303627047000010B504461F
:1039F000084639BB94F84430DBB2013B18BF0123C1
:103A0000002B56D1002836D1022384F844300422FA
:103A100001462068FFF7DAFF2268536C43F4004345
:103A200053642368264A934235D0B3F1804F32D095
:103A300002F5A05293422ED01A6842F001021A6099
:103A4000002037E0042908D008290DD094F8473029
:103A5000DBB2013B18BF0123D2E794F84530DBB25B
:103A6000013B18BF0123CBE794F84630DBB2013BA2
:103A700018BF0123C4E7042805D0082807D0022373
:103A800084F84730C3E7022384F84530BFE70223B8
:103A900084F84630BBE799680A4A0A40062A0AD0E9
:103AA000B2F5803F09D01A6842F001021A60002086
:103AB00000E0012010BD0020FCE70020FAE700BF75
:103AC000002C01400700010090F83C20012A2FD073
:103AD00030B40346012280F83C20022280F83D20C9
:103AE000006842688468134DA8421CD022F070021E
:103AF0000D682A4342601A680E48824206D0B2F12D
:103B0000804F03D000F5A050824204D124F08004FD
:103B1000896821439160012283F83D20002083F8C9
:103B20003C0030BC704722F470024D682A43DDE748
:103B300002207047002C014090F83C30012B3AD015
:103B400010B40246012380F83C30CB6823F4407364
:103B50008868034323F480634868034323F40063C5
:103B60000868034323F480530869034323F4005394
:103B70004869034323F48043886A034323F4702392
:103B8000886943EA004310680C4CA04205D04364A6
:103B9000002082F83C0010BC704723F470034C6A8C
:103BA00043EA045323F08073CC69234323F000736A
:103BB000096A0B43EBE70220704700BF002C01406D
:103BC000704770477047000010B50446016883686D
:103BD0000269134342691343C269134308688C4A5C
:103BE00002401A430A602268536823F44053E16894
:103BF0000B435360A1692268864B9A4201D0236A25
:103C00001943936823F430630B4393602368824A1B
:103C100093421CD0814A93422DD07E4A934243D096
:103C200010227C498B4260D0E069B0F5004F00F073
:103C30008C80082A00F2E580DFE812F0B400CA00A8
:103C4000B200E300CD00E300E300E300D00002F5A2
:103C50005842D2F8882002F00302032A09D8DFE88C
:103C600002F0020438060122DBE70422D9E7082229
:103C7000D7E71022D5E702F5E632D2F8882002F025
:103C80000C020C2A0ED8DFE802F0070D0D0D090D0D
:103C90000D0D260D0D0D0B000022C2E70422C0E71A
:103CA0000822BEE71022BCE702F5C832D2F888200D
:103CB00002F44062B2F5006F0FD005D87AB1B2F5C8
:103CC000806F0ED10422ACE7B2F5406F0BD1082211
:103CD000A7E70222A5E70222A3E70222A1E700222A
:103CE0009FE710229DE710229BE7082A79D8DFE89A
:103CF00002F008782A782778787805004FF4004099
:103D000003E0FEF7F3FB00286DD0626802EB42038C
:103D100083426AD8B0EB023F69D8010E0002530813
:103D2000C0184FF0000341F10001FCF737FEA0F589
:103D300040723B4B9A425CD82368D860002043E035
:103D4000FDF77AFFDFE73748DFE7082A53D8DFE8D7
:103D500002F007210552245252520B00314803E071
:103D6000FEF7C4FB002848D06268530803EB400309
:103D7000B3FBF2F3A3F110014FF6EF7291423ED87C
:103D80009AB222F00F02C3F3420313432268D360B6
:103D9000002019E0FEF7BCFBE4E7FDF74DFFE1E78B
:103DA000204802E0FEF7A2FB68B3636800EB530013
:103DB000B0FBF3F0A0F110024FF6EF739A4224D853
:103DC000236880B2D860002000236366A36610BD1C
:103DD000FEF79EFBE8E7FDF72FFFE5E74FF4004015
:103DE000E3E70120F0E70020EEE70120ECE7012007
:103DF000EAE70120E8E70120E6E70020E4E7012008
:103E0000E2E70120E0E70020DEE70120DCE700BF79
:103E1000F369FFEF0080004000380140004400409B
:103E2000FFFC0F000024F400436A13F0010F06D0DA
:103E30000268536823F40033816A0B435360436A7A
:103E400013F0020F06D00268536823F48033C16A6E
:103E50000B435360436A13F0040F06D002685368A3
:103E600023F48023016B0B435360436A13F0080F64
:103E700006D00268536823F40043416B0B43536040
:103E8000436A13F0100F06D00268936823F480533E
:103E9000816B0B439360436A13F0200F06D00268D6
:103EA000936823F40053C16B0B439360436A13F090
:103EB000400F0AD00268536823F48013016C0B434F
:103EC0005360036CB3F5801F0BD0436A13F0800F6F
:103ED00006D00268536823F40023816C0B435360BF
:103EE00070470268536823F4C003416C0B4353606E
:103EF000EBE72DE9F84305460F4616469946DDF8EF
:103F000020802B68DC6937EA04040CBF01240024FC
:103F1000B44253D1B8F1FF3FF3D0FDF77DFCA0EBE5
:103F2000090040452DD8B8F1000F2AD02B681A6837
:103F300012F0040FE5D0DA6912F4006FE1D04FF40B
:103F400000621A622A6852E8003F23F4D07342E804
:103F500000310029F6D12A6802F1080353E8003F36
:103F600023F00103083242E800310029F3D1202375
:103F7000AB67EB67C5F88030002385F87430032009
:103F80001DE02A6852E8003F23F4D07342E8003174
:103F90000029F6D12A6802F1080353E8003F23F014
:103FA0000103083242E800310029F3D12023AB6736
:103FB000EB67002385F87430032000E00020BDE8A3
:103FC000F8832DE9F04182B01E46836F202B56D135
:103FD00004460D469046002955D0002A55D090F849
:103FE0007430012B53D0012380F874300023C0F8C3
:103FF000803021238367FDF70FFC0746A4F850802B
:10400000A4F85280A368B3F5805F05D04FF0000894
:10401000002384F8743014E0236913B14FF00008D2
:10402000F6E7A8460025F3E738F8023B2268C3F319
:1040300008031385B4F8522092B2013A92B2A4F860
:104040005220B4F852309BB273B100963B46002226
:1040500080212046FFF74DFFD8B9002DE4D015F898
:10406000012B23681A85E5E700963B460022402194
:104070002046FFF73EFF70B92023A36700E002202F
:1040800002B0BDE8F0810120FAE70120F8E7022044
:10409000F6E70320F4E70320F2E72DE9F04383B0CD
:1040A0001E46C36F202B7ED104460D469046002944
:1040B0007DD0002A7DD090F87430012B7BD0012375
:1040C00080F874300023C0F880302222C267036673
:1040D000FDF7A2FB0746A4F85880A4F85A80A3680D
:1040E000B3F5805F06D0A3B9226972B9FF22A4F8A4
:1040F0005C2014E0226922B940F2FF12A4F85C208F
:104100000DE0FF22A4F85C2009E07F22A4F85C20E7
:1041100005E0B3F1805F0DD00022A4F85C20B4F874
:104120005C80B3F5805F0FD04FF00009002384F866
:1041300074301EE022691AB97F22A4F85C20EEE7F1
:104140003F22A4F85C20EAE7236913B14FF000098D
:10415000ECE7A9460025E9E723689B8C08EA0303FE
:1041600029F8023BB4F85A2092B2013A92B2A4F86C
:104170005A20B4F85A309BB28BB100963B460022CD
:1041800020212046FFF7B5FEB8B9002DE4D0236802
:104190009A8C5FFA88F3134005F8013BE2E720238D
:1041A000E367002000E0022003B0BDE8F0830120B7
:1041B000FAE70120F8E70220F6E70320F4E730B53C
:1041C00083B004460023C0F88030FDF725FB054688
:1041D0002268126812F0080F0DD123681B6813F0D3
:1041E000040F16D12023A367E3670020206684F81C
:1041F000740003B030BD6FF07E430093034600228D
:104200004FF400112046FFF774FE0028E5D003208C
:10421000EFE76FF07E4300932B4600224FF48001BE
:104220002046FFF766FE0028DCD00320E1E768B3F4
:1042300010B50446836F03B32423A3672268136871
:1042400023F0010313602046FFF7BEFC012813D0C2
:10425000636ABBB92268536823F4904353602268B1
:10426000936823F02A0393602268136843F00103E4
:1042700013602046FFF7A3FF10BD80F87430FDF7F0
:1042800099F9D9E72046FFF7CFFDE3E70120704712
:104290002DE9F04786468C460846089E154674462A
:1042A0001946002B40F0C2808542B2FA82F245D90D
:1042B0004AB1C2F1200300FA02FC2EFA03F3954042
:1042C00043EA0C0C94404FEA154EA8B2BCFBFEF832
:1042D000230C0EFB18CC08FB00F943EA0C4399456C
:1042E00028D9EB1808F1FF3704D2994502D9A8F173
:1042F00002072B44A3EB0903A4B2B3FBFEFC0EFBA5
:104300001C330CFB00F044EA0344A04214D92C19DE
:104310000CF1FF3304D2A04202D9ACF102032C44C9
:10432000241A43EA07401EB1D4400023346073606E
:10433000BDE8F0874746DDE76346F1E792BB431BE4
:1043400001214FEA154EAFB2B3FBFEFC200C0EFB71
:104350001C330CFB07F840EA0343984562D9EB187D
:104360000CF1FF3004D2984502D9ACF102002B4485
:10437000A3EB0803A4B2B3FBFEFC0EFB1C330CFB47
:1043800007F744EA0344A7424ED92C190CF1FF3336
:1043900004D2A74202D9ACF102032C44E41B43EA45
:1043A0000040C0E7C2F1200320FA03F1954090409D
:1043B0002EFA03F303434FEA154EAFB2B1FBFEFCF6
:1043C0000EFB1C10190C0CFB07F841EA0041884554
:1043D00004FA02F422D969180CF1FF3004D288459E
:1043E00002D9ACF102002944A1EB08019BB2B1FB58
:1043F000FEFC0EFB1C110CFB07F743EA01439F4236
:104400000ED9EB180CF1FF3104D29F4202D9ACF166
:1044100002012B44DB1B41EA004192E76046E3E7DF
:104420006146F7E76046A3E76346B7E7834206D9EC
:1044300016B9002108467BE7C6E900E0F9E7B3FAC0
:1044400083F78FB9834201D3724508D8BEEB0204CB
:1044500060EB030301209C461EB9002168E7384643
:10446000FAE7C6E9004CF8E7C7F1200CBB4022FA96
:104470000CF41C432EFA0CF120FA0CF3B840014363
:104480004FEA14490EFA07F5B3FBF9F81FFA84FE58
:1044900009FB18300B0C08FB0EFA43EA00439A455F
:1044A00002FA07F240D9E31808F1FF3004D29A4526
:1044B00002D9A8F102002344A3EB0A0389B2B3FB9B
:1044C000F9F809FB183308FB0EFE41EA03418E455B
:1044D0002CD9611808F1FF3304D28E4502D9A8F116
:1044E0000203214443EA0040A0FB0298A1EB0E0125
:1044F0004145CE46434602D306D14D4504D2B9EBE1
:10450000020E68EB04030138002EA6D0B5EB0E02B4
:1045100061EB030101FA0CFC22FA07F34CEA0303F6
:10452000F940C6E9003198E74046C5E74346D9E778
:10453000002301461A46184600F03EBA024A0349D3
:10454000034800F0C9B800BF0C000020117C00082F
:10455000200000200C4B4168994210B5044601D060
:1045600003F056FBA168094B994202D0204603F0A4
:104570004FFBE168064B994204D02046BDE810404D
:1045800003F046BB10BD00BFB40800201C0900208A
:10459000840900202DE9F843314C324B3248DFF8D2
:1045A000CC90DFF8CC80334F1860002529460423D7
:1045B000082204F15C00304EE360C4E90055C4E910
:1045C0000455A5606566A56100F006F904F1580080
:1045D000C4E90749C4E90987E66200F0E5F929461C
:1045E000264B6367082204F1C400C4E91A55C4E9E4
:1045F0001E552567C4F8CC50C4F8805000F0ECF884
:1046000004F1680304F1C000C4F88430C4E92298BE
:10461000C4E9247600F0C8F9194BC4F8DC30294607
:1046200004F596700822C4E93455C4E93855C4F835
:10463000D850C4F83451C4F8E85000F0CDF804F173
:10464000D003C4E93D87C4F8F09004F59470C4F831
:10465000FC60C4F8EC30BDE8F84300F0A5B900BF39
:10466000B4080020EC0900203D4500084947000837
:104670006D470008AD470008D14700080900010058
:104680001200020010B504460A4800F091F9636B6D
:1046900023B9094B094A1B68626323B1BDE8104086
:1046A000044800F087B9FFF775FFBDE810400148E6
:1046B00000F080B9FC090020EC09002055450008F5
:1046C000014800F075B900BFFC090020014800F066
:1046D00071B900BFFC0900202DE9F84380460F4660
:1046E00016464FF00009D6E90154013D11D4A389C3
:1046F000012B05F1FF3508D9B4F90E3001332146FD
:1047000003D04046B84749EA00096B1C04F168042D
:10471000EDD13668002EE6D14846BDE8F88300BFEB
:104720000FB400B5074983B004AB086853F8042BF5
:104730008168019300F0A6FD03B05DF804EB04B0BE
:10474000704700BF1800002010B50C46B1F90E10DC
:1047500000F0BCF8002803DB236D0344236510BD83
:10476000A38923F48053A38110BD00BF2DE9F0413C
:104770000C46B1F90C101F46CB05054616460BD466
:1047800021F48051A1813B46B4F90E1032462846EF
:10479000BDE8F04100F0B0B8B4F90E1002230022D9
:1047A00000F07EF8B4F90C10EAE700BF10B50C4633
:1047B000B1F90E1000F074F8B4F90C30421C0EBFC1
:1047C00023F4805343F480532065A38110BD00BFC0
:1047D000B1F90E1000F052B8830730B547D0541E1F
:1047E000002A3ED0CAB2034601E0013C39D303F8A7
:1047F000012B9D07F9D1032C2CD9CDB205EB052552
:104800000F2C05EB054535D9A4F1100222F00F0C51
:1048100003F1100EE6444FEA121C1A46156055606B
:104820009560D56010327245F8D10CF1010214F098
:104830000C0F03EB021204F00F0C13D0ACF10403C5
:1048400023F003030433134442F8045B9A42FBD180
:104850000CF003042CB1C9B21C4403F8011B9C42A8
:10486000FBD130BD64461346002CF4D1F9E7034672
:104870001446C0E71A46A446E0E700BF38B5074D26
:104880000022044608462A60FCF726FF431C00D09D
:1048900038BD2B68002BFBD0236038BDF009002009
:1048A00038B50C46084D8446114620461A4600236A
:1048B0002B606446FCF71AFF431C00D038BD2B6800
:1048C000002BFBD0236038BDF009002038B50C4622
:1048D000084D8446114620461A4600232B60644644
:1048E000FCF7DCFE431C00D038BD2B68002BFBD04E
:1048F000236038BDF009002038B50C46084D8446C9
:10490000114620461A4600232B606446FCF7D6FE6B
:10491000431C00D038BD2B68002BFBD0236038BD72
:10492000F0090020014B1868704700BF18000020F4
:1049300070B50F4B0F4DAB42A3EB050607D0B61079
:10494000002455F8043B01349847A642F9D806F0F4
:104950002BFE094D094B5E1BAB424FEAA60606D063
:10496000002455F8043B01349847A642F9D870BD9D
:1049700080BB000880BB000880BB000888BB000823
:1049800038B5074D074C2C1BA41005D0013C55F839
:10499000043D9847002CF9D1BDE8384006F00ABE26
:1049A0008CBB000888BB0008704700BF704700BF81
:1049B000704700BF704700BF2DE9F8431B4D064606
:1049C000286898460F469146FFF7F2FF184B1C687F
:1049D0001CB3286865681F2D22DC4EB96B1C02359C
:1049E000636044F82570FFF7E5FF0020BDE8F88319
:1049F00004EB85010123C1F88890D4F88821AB40ED
:104A00001A43022EC4F88821C1F80881E6D1D4F8EF
:104A10008C211A43C4F88C21E0E7064C1C60D8E7CF
:104A2000FFF7C8FF4FF0FF30E0E700BF4001002074
:104A3000900B0020000A0020024B13B10248FFF740
:104A400077BD704700000000814900082DE9F84358
:104A500006460820894603F013FDDFF89C800546D2
:104A6000304600F003FCD8F808305F6827F00307F1
:104A7000A7F11104A4EB09042C44B4FBF5F4013CA8
:104A800005FB04F4A54208DC0021304603F0E6FCF7
:104A9000D8F808303B44984205D0304600F0ECFB93
:104AA0000020BDE8F8836142304603F0D7FC0130B6
:104AB0000FD0124AD8F808303F1B47F001075F605B
:104AC000136830461B1B136000F0D6FB0120BDE8C5
:104AD000F8830021304603F0C1FCD8F80820831A7F
:104AE0000F2BDADD43F001035360054B03491B68CC
:104AF000C01A0860D1E700BF50010020940B0020CD
:104B00004401002000297CD0F8B50C46064600F090
:104B1000ADFB54F8043C774FA4F1080523F00101E4
:104B20006818D7F808C04268844522F0030200F0F4
:104B30008380DB07426000EB020C33D454F8084C4E
:104B4000DCF804302D1B2144AC6807F1080C6445E7
:104B500003F0010364D0D5F80CE0C4F80CE0CEF803
:104B60000840002B00F0818041F001036B60016080
:104B7000B1F5007F22D27868CB08012249090133C0
:104B80008A40024357F833107A6007EBC302083AB1
:104B9000C5E9021247F83350CD603046BDE8F84011
:104BA00000F06ABBDCF80430DB072BD541F00103D1
:104BB000B1F5007F44F8043C0160DCD3B1F5206F0F
:104BC0004FEA512353D28B0903F1390003F1380224
:104BD000C300F818FB580838984203D163E09B687B
:104BE000984204D05A6822F003028A42F7D8D86863
:104BF000C5E902308560DD603046BDE8F84000F070
:104C00003BBB7047114407F1080C836863453FD0F4
:104C1000C268DA60936041F001036B606950A7E7F6
:104C2000002B61D10A44D0E90213CB60996042F0B5
:104C300001036B60AA50B0E70A44D90707D454F8BF
:104C4000083CED1A1A44D5E90213CB60996042F092
:104C500001036B60284BBD601B6893429DD8274BB6
:104C600030461968FFF7F2FE97E71144CDE7142BA1
:104C700008D9542B1FD80B0B03F16F0003F16E0200
:104C8000C300A6E703F15C0003F15B02C300A0E7E9
:104C900041F001033D617D61C5F808C0C5F80CC055
:104CA0006B60695079E779689210012404FA02F286
:104CB0000A437A609CE7B3F5AA7F06D8CB0B03F1D1
:104CC000780003F17702C30083E740F25452934225
:104CD00006D88B0C03F17D0003F17C02C30078E75A
:104CE0004FF47E737E2274E741F001036B60016034
:104CF00053E700BF5001002048010020C40B0020F2
:104D00002DE9F04F01F10B05162D85B0064623D88D
:104D1000102900F2B08000F0A9FA10251823022013
:104D2000B74F3B44A3F108025C68944200F01E8137
:104D30006368E26823F003032344A168CA609160BA
:104D40005A6842F0010230465A60083400F094FA82
:104D5000204605B0BDE8F08F35F0070500F18B80E7
:104D6000A94200F2888000F081FAB5F5FC7FC0F01E
:104D70006E816B0A00F08380042B00F21D81AB0969
:104D800003F1390003F1380CC3009D4F3B44A3F1FC
:104D900008015C68A14206D10CE0002A80F2E380A1
:104DA000E468A14206D0636823F003035A1B0F2A6C
:104DB000F3DD6046DFF84CE23C69744500F0C080EA
:104DC000636823F00308A8EB05030F2B00F343816E
:104DD000002BC7E904EE80F22E81B8F5007FD7F8EA
:104DE00004C080F0C9804FEAD80101314FEA581859
:104DF000012303FA08F357F83120A2604CEA030CB0
:104E000007EBC103083BE360C7F804C047F8314033
:104E1000D46083104FF0010808FA03F8E04534D855
:104E200018EA0C0F08D120F003004FEA480818EAEE
:104E30000C0F00F10400F8D007EBC00A524681467F
:104E4000D1680EE04B6823F00303A3EB050CBCF123
:104E50000F0F0C46C96800F3BB80BCF1000F80F255
:104E6000DD808A42EED109F1010919F0030F02F148
:104E70000802E5D11AE10C233360002468E74FF4FF
:104E8000007340204FF03F0C7FE7BC68636823F05D
:104E90000309A94503D3A9EB05030F2B53DC5A4B98
:104EA000DFF868B11B68082003F1100803F0E8FA86
:104EB000DBF8003001900133A84404EB090205D06F
:104EC00008F1FF388044434203EA0808414630466F
:104ED000029203F0C3FAB0F1FF3F029A824600F05B
:104EE000D780824200F2D280494B01991868404431
:104EF00001F1FF311860844640F0FB801AEA010F8F
:104F000040F0F780D7F808A0C84448F00102CAF87A
:104F10000420404B1968814238BF18603E4B196825
:104F2000814238BF1860544622F00308A845A8EB18
:104F3000050301D30F2B06DC304600F09DF99CE7FA
:104F4000D7F804C065E7621943F0010345F0010595
:104F500065603046BA60536000F08EF90834204630
:104F600005B0BDE8F08FE2682344E6E6DC68A342C2
:104F70007FF4DEAE02301DE7B8F5206F4FEA58220D
:104F80007DD3142A00F2198102F15C03DB005B324D
:104F9000F918FB580839994203D1F3E09B6899420C
:104FA00004D05A6822F003024245F7D8D968C4E910
:104FB00002318C60DC602CE7142B6CD9542B00F28E
:104FC00005812B0B03F16F0003F16E0CC300DCE6CF
:104FD0003046A668621945F001056560F1608E6093
:104FE0004CF00101C7E90422C2F808E0C2F80CE065
:104FF000516044F803C000F03FF90834A8E600BF50
:105000005001002058010020C40B00204401002062
:10501000940B0020C00B0020BC0B00202344304622
:105020005A6842F001025A6054F8083FD9608B6018
:1050300000F022F98CE6A0443046D8F8043043F062
:105040000103C8F80430083400F016F980E6E808D7
:1050500005F1080364E6621943F0010145F001051A
:1050600065603046C7E90422C2F808E0C2F80CE0E7
:10507000516044F8083000F0FFF8083468E64FEA61
:10508000981202F13903DB00383281E7BC4228D0A4
:10509000BC68626848E703F15C0003F15B0CC30085
:1050A00073E65AF80839534540F0DB8010F0030FDF
:1050B00000F1FF30F5D17B6823EA08037B604FEAFB
:1050C000480898453FF6E1AEB8F1000F04D1DCE6A0
:1050D0004FEA480809F1040918EA030FF8D04846D6
:1050E000AAE6614B0199186808EB000C0139C3F876
:1050F00000C0DBF8000001301BBFAAEB02026244D3
:10510000CBF800A01A601AF00702CDE9022343D0C1
:10511000C2F10802019B9244D044134408EA010002
:105120001A1A02EA010B5946304603F097F9421C5D
:10513000039B79D0A0EB0A0000EB0B081868C7F8B6
:1051400008A048F001025844BC42CAF80420186084
:105150003FF4DFAEB9F10F0F42D96168A9F10C023B
:1051600022F0070201F0010111436160A1184FF024
:10517000050C0F2AC1F804C0C1F808C049D8DAF8F4
:105180000420C6E692104FF0010808FA02F24CEA39
:10519000020CC7F804C00AE7019B0AEB08020A40A8
:1051A0009A1A02EA010B5946304603F057F9431C9C
:1051B000039BBFD1DDF808B0C0E7542A14D84FEAEA
:1051C000183202F16F03DB006E32E1E6B3F5AA7F1D
:1051D00014D8EB0B03F1780003F1770CC300D4E58E
:1051E0000123CAF80430A7E6B2F5AA7F24D84FEA13
:1051F000D83202F17803DB007732C9E640F254522C
:10520000934224D8AB0C03F17D0003F17C0CC30066
:10521000BBE5304604F108010193FFF773FC019BE5
:10522000D7F808A01868AAE7029A083A9044A8EBB1
:105230000A084FF0000B81E740F254539A420CD811
:105240004FEA984202F17D03DB007C32A0E64FF486
:105250007E737F204FF07E0C97E54FF47E737E22A5
:1052600096E67B682BE700BF940B00200148FFF710
:105270009FBB00BFF40900200148FFF79BBB00BFA4
:10528000F40900202DE9F04FD9B01C46CDE90A10F1
:105290009246054603F0DEF80268179210460F9416
:1052A000FBF78EFC16901DB16B6B002B01F07F801D
:1052B0000A9A536EB2F90C20DE0702D4950540F12C
:1052C000B686900407D40A994B6E42F4005223F438
:1052D00000538A814B66110740F1CA800A9B1B6903
:1052E000002B00F0C58002F01A030A2B00F0CF80DB
:1052F0000023CDE92D33CDE91933CDE91B331293CA
:1053000018930D9300240023CDF820A0CDE9143488
:10531000089B1B782FAA2C929346002B00F09181BA
:10532000DDF820A004E01AF8013F002B00F0C48053
:10533000252BF8D1089BBAEB030540F0C2809AF800
:105340000030002B00F07D8100239AF801508DF889
:1053500093300C930AF1010A4FF0FF3907930AF1D9
:10536000010AA5F120035A2B00F2E180DFE813F0D7
:10537000C202DF00DF00BB02DF00DF00DF006A00E7
:10538000DF00DF0064029502DF006F02A202DF008F
:105390009B025B005B005B005B005B005B005B00F3
:1053A0005B005B00DF00DF00DF00DF00DF00DF000D
:1053B000DF007001DF00F001C701700170017001B2
:1053C000DF00DF00DF00DF00F202DF00DF0022028B
:1053D000DF00DF00DF00FA01DF00D702DF00DF00BF
:1053E0002107DF00DF00DF00DF00DF00DF00DF007C
:1053F000DF007001DF00F001CB017001700170016E
:10540000CD02CB01C001DF00F902DF0076022602E7
:105410008402C001DF00FA017D001E07DF00DF000B
:105420004407DF007D00A5F1300300221AF8015B7C
:1054300002EB820203EB4202A5F13003092BF5D9FE
:105440000C928EE70B9D284603F004F843681B93EB
:105450001846FBF7B5FB1C900446284602F0FAFFFD
:1054600083681993002C40F07F869AF8005076E705
:105470000A9D0B98294602F065FE002841F0328310
:10548000B5F90C2002F01A030A2B7FF431AF0A9908
:10549000B1F90E30002BFFF62BAF4B6EDE0702D4B6
:1054A000950541F17281DDE90A102346524659B053
:1054B000BDE8F04F01F040BC089BBAEB030500F0DB
:1054C000C080089B2E9FCBE900352D9B01332F44D4
:1054D000072B2E972D9305DC0BF1080B0D9B2B440E
:1054E0000D932CE7DDE90A102CAA01F0A1FC80B98C
:1054F0000DF1BC0BF2E7DDE90A102CAA01F098FCD3
:10550000002800F08D800E9B1BB10B981946FFF709
:10551000F9FA0A9B5A6EB3F90C30D40740F1DE80D9
:10552000590601F1EB820D9859B0BDE8F08F002DBE
:1055300000F0878000228DF8FC508DF89320012325
:10554000CDE9102209931E463FAB0E92914613926D
:105550000893079B13F0020302D0099902310991C5
:10556000079911F0840405D10C9909980F1A002F9E
:1055700000F382832E9F8AB12D9A0DF1930101329F
:105580000137CBF80010072A4FF001012E972D921A
:10559000CBF8041000F3D4830BF1080B83B12D9BDF
:1055A00025AA01330237CBF80020072B4FF0020267
:1055B0002E972D93CBF8042000F3D0830BF1080B2A
:1055C000802C00F05182A9EB0608B8F1000F00F31F
:1055D0009782079BDC0500F1CE81089BCBF8003059
:1055E0002D9BCBF804600133F519072B2E952D93D5
:1055F00000F3E6820BF1080B079B5E0705D50C9BB9
:10560000099A9C1A002C00F3B583DDE90C23099953
:105610008A42ACBF9B185B180D93002D7FF46BAFD3
:1056200000232D930E9B1BB10E990B98FFF76AFA7E
:105630000DF1BC0BCDF820A0089B1B78002B7FF44C
:105640006FAE2E9B002B41F01A8200232D9360E752
:105650000F9B073323F00703F3E802670F9327F04C
:1056600000431F931E96DDE91E01B64B4FF0FF323B
:10567000CDE91467FBF798FB002840F01E85DDE9B3
:105680001E01B04B4FF0FF32FBF770FB002840F0DB
:1056900014850022002330463946FBF75DFB0028C5
:1056A00040F013879DF89320079BA74C23F08003BD
:1056B0000793A64B472DC8BF1C460023CDE91033E6
:1056C000032108940E9309910E4699461393002ADC
:1056D0003FF43FAF099B013309933AE798053FF543
:1056E0001FAF0A9CA06DFFF765F9B4F90C3017E7FE
:1056F000079B9AF8005043F0200307932FE6079B7F
:1057000043F010030793079B9C0640F157840F9BBF
:10571000073323F007031A46596852F8083B0F92E3
:105720000A460029C0F27B84B9F1FF3F00F0F982FC
:10573000079921F0800653EA020140F0F382B9F1A3
:10574000000F40F0F482079658AB4E46089365E090
:105750000F9B002253F8041B8DF893208DF8FC104A
:105760000F93ECE60F9F57F8043B089300268DF843
:105770009360002B00F07585B9F1FF3F00F064865F
:1057800008984A463146FBF723F90E90002801F0AD
:105790005A810E9B089A0F97B1469E1A26EAE67325
:1057A000CDE910999DF893200993CDF83890CDF864
:1057B0004C908CE7079B43F010030793079B13F073
:1057C000200200F01A840F9B073323F007031946C9
:1057D0005A6851F8083B0F91079921F4806600211F
:1057E0000020B9F1FF3F8DF8930000F0218126F0F1
:1057F0008000079053EA020040F01981B9F1000FD0
:1058000040F0DA8500299FD116F001061BBF302336
:105810008DF85F3158AB0DF25F1308934E454FF092
:1058200000033146B8BF4946CDE910339DF89320B7
:105830000E93099113934AE70F9B53F8042B0C9294
:10584000002A80F2FC830C9A0F9352420C92079B21
:105850009AF8005043F00403079380E5079B9E06E7
:1058600040F192840F9B0D9A1B681A60D2175A6000
:105870000F9B04330F93DDE60F9A079B43F002065C
:1058800052F8043B0F9247F63002ADF89420304AAC
:105890001892022100227825A2E72B239AF80050C3
:1058A0008DF893305BE5079B9AF8005043F0800336
:1058B000079354E5524612F8015B2A2D01F0198234
:1058C000A5F13003092B92464FF000093FF649AD90
:1058D0001AF8015B09EB890903EB4909A5F13003CB
:1058E000092BF5D93DE5079B9AF8005043F00103D9
:1058F000079334E59DF893309AF80050002B7FF41D
:105900002EAD20238DF8933029E59AF80050079B9F
:10591000682D00F0878443F0400307931FE5079B41
:1059200043F0100616F0200200F058830F9B073357
:1059300023F0070319465A6851F8083B0F910121DB
:105940004EE700BFFFFFEF7F1CB6000820B600083F
:105950002CB60008079B9AF8005043F00803079301
:10596000FDE49AF80050079B6C2D00F0718443F021
:1059700010030793F3E4652D40F32E81DDE9140154
:1059800000220023FBF7DEF9002800F02F822D9B78
:10599000B74ACBF80020013301370122072B2E979D
:1059A0002D93CBF8042000F30C850BF1080B269BFC
:1059B000129A934204DB079BD80701D43D461BE6AD
:1059C000169B179ADD19CBE900232D9B2E950133E9
:1059D000072B2D9300F32F840BF1080B129B5C1EF9
:1059E000002C7FF709AE102C2D9BA24F40F3F684BC
:1059F000DDE90A98102605E00BF1080B103C102C8D
:105A000040F3EC8401331035072BCBE90076CDE968
:105A10002D35F1DD2CAA4946404601F009FA00284F
:105A20007FF471ADDDE92D350DF1BC0BE6E7079E86
:105A3000012900F07781022900F0608158AC03F061
:105A40000701DB0843EA4273D208303153EA020708
:105A5000204604F8011DF2D1F707089400F14782AF
:105A600058AB07961E1BD9E60C9B099AA3EB0208BC
:105A7000B8F1000F7FF7A7ADB8F1100F3A462D9B94
:105A80007C4F29DD1D9620951024DDE90A56194624
:105A900006E0A8F11008B8F1100F0BF1080B18DDA3
:105AA000013110320729CBE90074CDE92D12F0DD68
:105AB0002CAA294630460DF1BC0B01F0B9F900289B
:105AC0007FF421ADA8F11008B8F1100FDDE92D1217
:105AD000E6DC1D9E209D0B460133CBF80070072BA2
:105AE00008EB0207CDE92D37CBF8048000F38D8356
:105AF000A9EB0608B8F1000F0BF1080B7FF769ADB1
:105B0000B8F1100F3A462D9B5A4F2CDD59460B9C8D
